:100000000C9434000C9451000C9451000C94510049
:100010000C9451000C9451000C9451000C9451001C
:100020000C9451000C9451000C9451000C949801C4
:100030000C9474010C9451000C9451000C945100D8
:100040000C9426040C9451000C9451000C94510013
:100050000C9451000C9451000C9451000C945100DC
:100060000C9451000C94510011241FBECFEFD8E026
:10007000DEBFCDBF13E0A0E0B1E0E4E8F9E102C0EB
:1000800005900D92A830B107D9F723E0A8E0B3E0BE
:1000900001C01D92A634B207E1F70E9451060C94EC
:1000A000C00C0C940000CF93DF93EC0188859985F8
:1000B0002A813B81821793072CF02C813D812817E0
:1000C000390724F48E819F819987888769858A857D
:1000D0009B850E94A00C68858C859D85DF91CF91C2
:1000E0000C94A00C1F93CF93DF93EC018A859B8522
:1000F0000E94980C182F8C859D850E94980C912F3A
:100100002A813B81821793075CF02C813D8128175F
:10011000390734F099878887DF91CF911F9108952F
:100120008E819F81F7CFEAEAF1E0868197819187FE
:100130008087ECE9F1E08681978191878087EEE8FE
:10014000F1E08681978191878087E0E8F1E0868100
:10015000978191878087E2E7F1E086819781918797
:100160008087E4E6F1E08681978191878087E6E5E4
:10017000F1E08681978191878087E8E4F1E08681CC
:10018000978191878087EAE3F1E086819781918763
:10019000808710923501109234011092270110923D
:1001A0002601E0E1F1E08681978191878087E2E096
:1001B000F1E086819781918780878AEA91E00E94A9
:1001C00053008CE991E00E9453008EE891E00E9478
:1001D000530080E891E00E94530082E791E00E9482
:1001E000530084E691E00E94530086E591E00E946E
:1001F000530088E491E00E9453008AE391E00E945A
:1002000053008CE291E00E9453008EE191E00E9445
:10021000530080E191E00E94530082E091E00C9451
:100220005300CF93DF93FC01DC010D900020E9F730
:100230001197A81BB90B8081EF01AD014150510905
:100240009E012E1B3F0B241735073CF0EA0FFB1FC6
:1002500031978083DF91CF91089599819993F0CF61
:1002600041E062E082E00E94660540E060E081E0FB
:100270000E94660540E061E080E00E9466052FEF85
:1002800083ED90E3215080409040E1F700C00000F2
:1002900008959FB7F894E1E8F0E080818C7F808337
:1002A000808184608083A0E8B0E08C918C7F8C9307
:1002B00080818860808380818F7E80838C918F7025
:1002C0008C9320E832E0309389002093880028E066
:1002D00030E030938B0020938A00EFE6F0E08081DD
:1002E000866080839FBF08951F920F920FB60F9272
:1002F00011242F933F934F935F936F937F938F932B
:100300009F93AF93BF93EF93FF930E940405FF91D8
:10031000EF91BF91AF919F918F917F916F915F917D
:100320004F913F912F910F900FBE0F901F901895F6
:100330001F920F920FB60F9211242F933F934F935A
:100340008F939F9383B120914503809528279091A7
:100350001203392F32233095309312038091110309
:10036000482F4223342730931103892B8095822311
:1003700090914503982790934503909145032091D0
:1003800044038923822B8093440380914503847224
:1003900019F484E180931003809110038150A9F037
:1003A00080931003809143038F5F809343038333D3
:1003B00010F0109243039F918F914F913F912F9195
:1003C0000F900FBE0F901F90189588E08093100338
:1003D00080914503909142038472892B809342035C
:1003E000E1CF1F93CF93DF93EC01CB010E94C805AF
:1003F0002FE78FE492E1215080409040E1F700C068
:10040000000080E20E94DC04882329F18885998518
:100410002C813D8182179307D4F011E0888599855E
:100420000E949605113069F30E943E06CE010E949B
:1004300053002FEF89E698E1215080409040E1F78A
:1004400000C00000DF91CF911F910C9448060196E7
:1004500099878887E2CF84E00E94DC04882349F0F2
:10046000888599852A813B8128173907B4F6019739
:10047000EFCF80E20E94E704882359F088859985B0
:100480002C813D812A5031098217930734F60A9650
:10049000DFCF80E20E94EE048111F0CF84E00E9461
:1004A000E704882361F0888599852A813B81265F4E
:1004B0003F4F281739070CF0B0CF0A97C9CF84E017
:1004C0000E94EE048111EFCF84E20E94F40411E057
:1004D000882309F4A3CF10E0A1CF6091AA01709105
:1004E000AB018AEA91E00E94F10160919C01709158
:1004F0009D018CE991E00E94F10160918E01709163
:100500008F018EE891E00E94F1016091800170916D
:10051000810180E891E00E94F10160917201709187
:10052000730182E791E00E94F10160916401709192
:10053000650184E691E00E94F101609148017091AB
:10054000490188E491E00E94F10160913A017091C3
:100550003B018AE391E00E94F10160911E017091DC
:100560001F018EE191E00E94F101609110017091F4
:10057000110180E191E00E94F1016091020170910E
:10058000030182E091E00C94F10110927C0087E07D
:1005900080937A0080917A00806880937A008091BD
:1005A0007A00806480937A0080917A0086FDFCCF87
:1005B0008091780090917900089590917C00907ED0
:1005C0008F71982B90937C0080917A008064809347
:1005D0007A0080917A0086FDFCCF8091780090911E
:1005E00079000895299A219A84B18B7D84B985B1C7
:1005F000846285B924982C9A439A3B9A8AB18FEFEA
:100600008AB984B1816C84B90E9449010E94C502F3
:1006100090E080E00E94980C823239F00E949300B2
:1006200062E290E080E00E94B20C1D9938C01A99F5
:1006300036C00E9493008AEA91E00E9472008CE921
:1006400091E00E9472008EE891E00E94720080E8C2
:1006500091E00E94720082E791E00E94720084E6BD
:1006600091E00E94720086E591E00E94720088E4A9
:1006700091E00E9472008AE391E00E9472008CE295
:1006800091E00E9472008EE191E00E94720080E190
:1006900091E00E94720082E091E00C9472001D993A
:1006A000CACF8BEB92E00E94C8052FEF89E698E154
:1006B000215080409040E1F700C000008FEB92E0B5
:1006C0000E94C8052FEF89E698E1215080409040B4
:1006D000E1F700C0000043982FEF84E39CE0215035
:1006E00080409040E1F700C0000085E00E94DD02FC
:1006F0000E949605F1CFCF93DF93CDB7DEB7629717
:100700000FB6F894DEBF0FBECDBF88E0E3ECF2E099
:10071000DE011B9601900D928A95E1F78AE0EBECE1
:10072000F2E0DE01119601900D928A95E1F7299A87
:100730001C9935C043982FEF8DE399E421508040F8
:100740009040E1F700C0000085E00E94DD022091AA
:100750001801309119018217930738F020910A018E
:1007600030910B012817390760F5439ACE010196A5
:100770000E94EB052FEF83ED90E3215080409040E5
:10078000E1F700C000000E941B062FEF89E698E108
:10079000215080409040E1F700C00000E7CFCE013B
:1007A0000B960E94C805CE010B960E9411012FEFF7
:1007B00084E39CE0215080409040E1F700C00000BD
:1007C000B7CF439A62960FB6F894DEBF0FBECDBF87
:1007D000DF91CF910895789484B5826084BD84B50B
:1007E000816084BD85B5826085BD85B5816085BD2C
:1007F000EEE6F0E0808181608083E1E8F0E0108245
:10080000808182608083808181608083E0E8F0E085
:10081000808181608083E1EBF0E08081846080836F
:10082000E0EBF0E0808181608083EAE7F0E08081A6
:100830008460808380818260808380818E7F8083DA
:100840008081806880831092C10008951F920F926A
:100850000FB60F9211242F933F938F939F93AF93D3
:10086000BF938091080390910903A0910A03B0916E
:100870000B033091390326E0230F2D3758F50296EC
:10088000A11DB11D209339038093080390930903A0
:10089000A0930A03B0930B0380910C0390910D0376
:1008A000A0910E03B0910F030196A11DB11D80937D
:1008B0000C0390930D03A0930E03B0930F03BF910D
:1008C000AF919F918F913F912F910F900FBE0F90FD
:1008D0001F90189529E8230F0396A11DB11DD2CFB3
:1008E0002FB7F894609108037091090380910A036F
:1008F00090910B032FBF0895A895882319F084B712
:100900008093460384B7877F84BF0FB6F894A89579
:1009100080916000886180936000109260000FBE3B
:100920000895A89584B7877F84BF88E19BE00FB6C0
:10093000F894A895809360000FBE9093600008958E
:10094000A89584B7877F84BF88E19BE00FB6F894B1
:10095000A895809360000FBE909360002FEF89EF01
:1009600090E0215080409040E1F700C0000080E01E
:100970000C947C048091460383FB882780F90895BA
:10098000A8950895F8949091440389239091440385
:1009900098279093440378940895F8949091420393
:1009A0008923909142039827909342037894089565
:1009B0009091450389230895F8949091450390956B
:1009C00089230C94C2040E94CD040C94C20490911B
:1009D000440389230E94CD040C94C20490914403E3
:1009E000909589230C94CD049091440398239813F7
:1009F00080E00C94C204909144039823981380E003
:100A00009091450389230895809141038F5F883138
:100A1000A9F080934103E0914103E770E1508EEF2C
:100A2000E73080F4F0E0E95EFA4F0C944A0A2105C1
:100A3000300532053405360538053A051092410374
:100A4000EACF8DEF9FEF9BB99091410396959695D4
:100A500096959130C1F080F09230E9F0289811C05D
:100A60008BEFF0CF87EFEECF8FEEECCF8FEDEACFAD
:100A70008FEBE8CF8FE7E6CF289A9091B801892BCA
:100A80008BB92F9806C02F9A9091B901892B8BB9F9
:100A900028982E9807C02E9A9091BA01892B8BB96D
:100AA00028982F9880918A0090918B0080389240EE
:100AB00039F488E090E090938B0080938A00089549
:100AC00080918A0090918B000896F5CFE62FF0E098
:100AD000E554FE4F908141119F7EE82FF0E0E854ED
:100AE000FE4F908308950F931F93CF93DF938091D0
:100AF000400380FF16C0DFB7F8940AE313E0C0E0BC
:100B0000F80143810F5F1F4F60818C2F0E946605A3
:100B1000CF5FC330A9F7809140038E7F809340035D
:100B2000DFBFDF91CF911F910F9108959C0197FF37
:100B30002AC081E080933D0380933E0380933F036E
:100B4000319521953109EAE0F0E0C901BF010E9429
:100B5000170A80933A03CB01BF010E94170A8093C2
:100B60003B03C90164E670E00E94170ACB01BF0194
:100B70000E94170A80933C03809140038160809318
:100B800040030C94730510923E0310923F03DBCF99
:100B9000FC018FEF80933A0380933B0380933C03E7
:100BA00010923D0310923E0310923F0380818823F0
:100BB00059F080933C038181882331F080933B037B
:100BC0008281811180933A038091400381608093F8
:100BD00040030C9473051F93CF93DF93EC0188813E
:100BE0008823C1F081E09981911180E091E02A8110
:100BF000211190E0892B19F48B81811103C0CE0162
:100C00000E94C80510E0CE01810F911DFC012281D8
:100C1000211104C0DF91CF911F9108950E94C80552
:100C20002FEF84E39CE0215080409040E1F700C02A
:100C300000001F5FE8CFEAE3F3E08FEF808381835A
:100C40008283138214821582E0E4F3E08081816064
:100C500080830C94730581E080933D03E0E4F3E02E
:100C60008081816080830C94730510923D03E0E4E1
:100C7000F3E08081816080830C94730581E0809330
:100C80003E03E0E4F3E08081816080830C9473058F
:100C900010923E03E0E4F3E08081816080830C9455
:100CA000730581E00E947C040E94EB030E94F20223
:100CB0000E94BA048823D9F0299A439885ED92E0DE
:100CC0000E94C8052FEF49E688E12150404080404E
:100CD000E1F700C000000E941B069FEF29E648E1F3
:100CE000915020404040E1F700C00000E7CF0E9453
:100CF00030010E94A0040E947B030E9491043324CF
:100D0000339480E00E94DD02EC0180916C019091AF
:100D10006D0164E670E00E94170ACE010E94030A8A
:100D200080917A0190917B01680F791F77FD1AC03D
:100D300070933803609337038091340190913501AB
:100D4000019711F01C9913C0299A0E9470046093B6
:100D500033037093340380933503909336030E94DA
:100D6000350615C11092380310923703E5CF1C9B4E
:100D7000A8C120915E0130915F018091580190914E
:100D80005901281739070CF49CC1809131039091C7
:100D90003203863292400CF094C10E94700400919C
:100DA00033031091340320913503309136036B01E6
:100DB0007C01C01AD10AE20AF30AA0914201B09163
:100DC000430120E63AEE0E94500AC616D706E8060E
:100DD000F90608F076C1439880913103909132036F
:100DE000C0905E01D0905F01C81AD90A00912F030C
:100DF00010913003081B190BC601D7FE04C08827C9
:100E000099278C199D0920918801309189010D2C19
:100E1000000CEE08FF08821793070CF045C1809183
:100E20002B0390912C03A0912D03B0912E038C0DD8
:100E30009D1DAE1DBF1D80932B0390932C03A0938B
:100E40002D03B0932E0360912B0370912C0380919E
:100E50002D0390912E030E949F0B4B015C0160912A
:100E6000A4017091A501072E000C880B990B0E941C
:100E70009F0B20E030E44CE156E40E94F50A9B0110
:100E8000AC01C501B4010E942B0C4B015C016091C7
:100E9000B2017091B301072E000C880B990B0E94D0
:100EA0009F0B20E030E048EC52E40E94F50A2B0151
:100EB0003C01C701B6010E949F0B9B01AC01C3011D
:100EC000B2010E942B0C9B01AC01C501B4010E9430
:100ED000890A6B017C016091960170919701072E40
:100EE000000C880B990B0E949F0B20E030E048EC2F
:100EF00051E40E94F50A4B015C01B801110F880B07
:100F0000990B0E949F0B9B01AC01C501B4010E948B
:100F10002B0C9B01AC01C701B6010E94890A0E94FB
:100F2000670B70932A03609329036130724034F099
:100F300080E092E090932A03809329038091290313
:100F400090912A0397FF04C010922A03109229035C
:100F500020912703309128038091290390912A033F
:100F6000281739070CF0A9C00E942B0629988091F8
:100F700027039091280301969093280380932703D9
:100F80008115924021F4109228031092270360915A
:100F9000370370913803072E000C880B990B0091D2
:100FA0002303109124032091250330912603600F21
:100FB000711F821F931F60932303709324038093F8
:100FC00025039093260320912103309122032F5F64
:100FD0003F4F3093220320932103409150015091C1
:100FE000510124173507F1F4409131035091320338
:100FF0005093300340932F03032E000C440B550BEA
:101000000E942B0A30933203209331031092230362
:1010100010922403109225031092260310922203AB
:101020001092210300913103109132030E32110509
:101030000CF049C080912003882381F08091010148
:10104000882361F00E94700460931C0370931D0359
:1010500080931E0390931F03109201018091010160
:10106000811115C00E947004C0901C03D0901D0314
:10107000E0901E03F0901F036C197D098E099F09F3
:1010800068397A438105910510F030921B031C9951
:1010900025C080913401909135010197F9F4073210
:1010A0001105E4F4439A2BC010922B0310922C03E9
:1010B00010922D0310922E03C6CE299A0E94350657
:1010C00056CF299A4CCE30922003309201011092D3
:1010D0001B030C331105DCF2439811C01C9965C049
:1010E0008091340190913501892B09F05EC00E3258
:1010F00011050CF05AC080911B038111D3CF80E2FF
:101100000E94DC04882309F453C00E947004609399
:101110001703709318038093190390931A03809117
:101120005E0190915F0120915A0130915B0182171D
:1011300093072CF4019690935F0180935E011092C7
:1011400000010091310310913203063282E018074A
:101150000CF4D4C0299A439880E00E947C0489ED65
:1011600092E00E94C8059FEF29E648E19150204097
:101170004040E1F700C000008CED92E00E94C805FD
:101180008FEF93ED20E3815090402040E1F700C0C5
:1011900000000E941B064FEF89E698E14150804015
:1011A0009040E1F700C00000DACF1C9BA8CF94CF9D
:1011B00084E00E94DC048823C1F00E9470046093E4
:1011C0001703709318038093190390931A03809167
:1011D0005E0190915F0120915801309159012817CB
:1011E00039070CF0ACCF0197A6CF80E20E94E7044C
:1011F0008823E9F00E94700460931703709318032A
:101200008093190390931A0380915E0190915F017E
:1012100020915A0130915B01A9014A50510984176C
:1012200095074CF130935F0120935E0188CF80E2F7
:101230000E94EE048111DECF84E00E94E70488233F
:10124000E1F00E9470046093170370931803809379
:10125000190390931A0380915E0190915F01209190
:10126000580130915901A901465F5F4F481759074E
:10127000CCF60A9760CF0A965ECF84E00E94EE0417
:101280008111DFCF84E20E94FB04882309F459CF47
:10129000299A80E00E947C048FE395E828E0815041
:1012A00090402040E1F700C0000084E20E94E70483
:1012B000882329F00E946D020E94910442CF84E2AB
:1012C0000E94C20480913401909135019C0141E05B
:1012D00024273093350120933401109200010197A7
:1012E00051F40E9470046093170370931803809365
:1012F000190390931A0310924303DECF0E947004E7
:10130000C0901703D0901803E0901903F0901A03CF
:101310006C197D098E099F09603D77408105910513
:1013200038F5809143038530E0F40E941B060E944B
:101330007004009113031091140320911503309150
:101340001603601B710B820B930B653F7140810587
:10135000910510F00E9448060E9473050E94C00487
:10136000D0CC80915E0190915F010E949605DFCF05
:1013700080910001811117C00E943E0686E591E030
:101380000E9453008CE291E00E9453000E9470047E
:1013900060931303709314038093150390931603C3
:1013A00030920001C4CF809134019091350109320F
:1013B000110564F4019739F480912C0190912D016D
:1013C0000E94C805B4CF80EE92E0FACF019731F4C5
:1013D00080914303843180F3C801C7CF80912601F7
:1013E00090912701019711F4CE01BFCF80915E014A
:1013F00090915F019801281B390B2E5F3F4F2530DC
:10140000310550F7B2CFAA1BBB1B51E107C0AA1F81
:10141000BB1FA617B70710F0A61BB70B881F991F95
:101420005A95A9F780959095BC01CD01089597FB39
:10143000072E16F4009407D077FD09D00E94030A06
:1014400007FC05D03EF4909581959F4F08957095C7
:1014500061957F4F0895052E97FB1EF400940E941E
:10146000420A57FD07D00E94570A07FC03D04EF4EA
:101470000C94420A50954095309521953F4F4F4F1F
:101480005F4F089590958095709561957F4F8F4F30
:101490009F4F0895EE0FFF1F0590F491E02D0994E2
:1014A0000E94790AB7FF0895821B930B0895A1E269
:1014B0001A2EAA1BBB1BFD010DC0AA1FBB1FEE1FCE
:1014C000FF1FA217B307E407F50720F0A21BB30B19
:1014D000E40BF50B661F771F881F991F1A9469F795
:1014E00060957095809590959B01AC01BD01CF01F1
:1014F0000895A29FB001B39FC001A39F700D811DED
:101500001124911DB29F700D811D1124911D08950C
:101510005058BB27AA270E94A00A0C94F10B0E94E6
:10152000E30B38F00E94EA0B20F039F49F3F19F4E6
:1015300026F40C94E00B0EF4E095E7FB0C94DA0B28
:10154000E92F0E94020C58F3BA1762077307840749
:10155000950720F079F4A6F50C94240C0EF4E09590
:101560000B2EBA2FA02D0B01B90190010C01CA015D
:10157000A0011124FF27591B99F0593F50F4503E08
:1015800068F11A16F040A22F232F342F4427585FFA
:10159000F3CF469537952795A795F0405395C9F712
:1015A0007EF41F16BA0B620B730B840BBAF09150CA
:1015B000A1F0FF0FBB1F661F771F881FC2F70EC069
:1015C000BA0F621F731F841F48F48795779567953C
:1015D000B795F7959E3F08F0B0CF9395880F08F028
:1015E0009927EE0F9795879508950E94090B0C9403
:1015F000F10B0E94EA0B58F00E94E30B40F029F433
:101600005F3F29F00C94DA0B51110C94250C0C94CB
:10161000E00B0E94020C68F39923B1F3552391F378
:10162000951B550BBB27AA2762177307840738F051
:101630009F5F5F4F220F331F441FAA1FA9F335D0AE
:101640000E2E3AF0E0E832D091505040E695001C62
:10165000CAF72BD0FE2F29D0660F771F881FBB1F1C
:10166000261737074807AB07B0E809F0BB0B802DFA
:10167000BF01FF2793585F4F3AF09E3F510578F026
:101680000C94DA0B0C94250C5F3FE4F3983ED4F3F2
:10169000869577956795B795F7959F5FC9F7880FFA
:1016A000911D9695879597F90895E1E0660F771F4C
:1016B000881FBB1F621773078407BA0720F0621BDD
:1016C000730B840BBA0BEE1F88F7E09508950E9408
:1016D0006E0B6894B1110C94250C08950E940A0CAD
:1016E00088F09F5798F0B92F9927B751B0F0E1F0E3
:1016F000660F771F881F991F1AF0BA95C9F714C093
:10170000B13091F00E94240CB1E008950C94240CA7
:10171000672F782F8827B85F39F0B93FCCF38695CB
:1017200077956795B395D9F73EF490958095709528
:1017300061957F4F8F4F9F4F0895E89409C097FBA5
:101740003EF490958095709561957F4F8F4F9F4F98
:101750009923A9F0F92F96E9BB279395F6958795DC
:1017600077956795B795F111F8CFFAF4BB0F11F49F
:1017700060FF1BC06F5F7F4F8F4F9F4F16C0882346
:1017800011F096E911C0772321F09EE8872F762F7C
:1017900005C0662371F096E8862F70E060E02AF0BD
:1017A0009A95660F771F881FDAF7880F96958795A9
:1017B00097F9089597F99F6780E870E060E00895D1
:1017C0009FEF80EC089500240A9416161706180659
:1017D0000906089500240A94121613061406050635
:1017E0000895092E0394000C11F4882352F0BB0FC6
:1017F00040F4BF2B11F460FF04C06F5F7F4F8F4F29
:101800009F4F089557FD9058440F551F59F05F3F63
:1018100071F04795880F97FB991F61F09F3F79F012
:1018200087950895121613061406551FF2CF469594
:10183000F1DF08C0161617061806991FF1CF869516
:101840007105610508940895E894BB2766277727FA
:10185000CB0197F908950E943E0C0C94F10B0E9465
:10186000E30B38F00E94EA0B20F0952311F00C9462
:10187000DA0B0C94E00B11240C94250C0E94020C42
:1018800070F3959FC1F3950F50E0551F629FF001D3
:10189000729FBB27F00DB11D639FAA27F00DB11DEC
:1018A000AA1F649F6627B00DA11D661F829F222775
:1018B000B00DA11D621F739FB00DA11D621F839FFC
:1018C000A00D611D221F749F3327A00D611D231FD2
:1018D000849F600D211D822F762F6A2F11249F5720
:1018E00050409AF0F1F088234AF0EE0FFF1FBB1F23
:1018F000661F771F881F91505040A9F79E3F5105E2
:1019000080F00C94DA0B0C94250C5F3FE4F3983EC6
:10191000D4F3869577956795B795F795E7959F5F8B
:10192000C1F7FE2B880F911D9695879597F908951D
:10193000F999FECF92BD81BDF89A992780B5089597
:10194000262FF999FECF92BD81BDF89A019700B478
:10195000021639F01FBA20BD0FB6F894FA9AF99A18
:101960000FBE0895262FF999FECF1FBA92BD81BDF3
:1019700020BD0FB6F894FA9AF99A0FBE0196089511
:04198000F894FFCF09
:101984000101E4022C019001900190011400150062
:10199400E8027800B4008200820012001300EC0216
:1019A40000000100000000001C001D00BB0200003C
:1019B4000100000000001A001B00F00200001E00DD
:1019C4000A000A0010001100F4026400E703FA00A0
:1019D400FA000E000F00D4023200F4014B004B0059
:1019E4000C000D00F8026400E703640064001E00AC
:1019F4001F00FC029CFF6400210021000A000B0070
:101A04000003000064002D002D00080009000403F9
:101A14000000E703F401F4010600070006030000D8
:101A2400E7030F000F0004000500F2020000E703C3
:101A34008A028A0202000300FFFFFF505F381A1770
:101A440092905E1016EFEFEFEFEFEFEFEFEFEFEFA7
:101A5400EFEFEFEFEFEFEFEFEFEFEFFFEFEFEFEF82
:101A6400EFEFEFEFEF36EFEFBFEFEFEFEFEFEFEF6B
:101A7400EFEFEFEFEFEFEFEFEFEFEFEF1491F01980
:101A8400B0B49095DFEFEFF1EF549934EFBD92B11C
:101A9400D9D9EFEFEFEFEFEFEFEFEFEFEFEFEFEF7E
:101AA400EFEFEFEFEFEFEFEFEFEFEFEFEFEFEFEF42
:101AB400EFEFEFEFEFEFEFEFEFEFEFEFEFEFEFEF32
:101AC400EFEFEFEFEFEFEFEFEFEFEFEFEFEFEFEF22
:101AD400EFEFEFEFEFEFEFEFEFEFEFEFEFEFEFEF12
:101AE400EFEFEFEFEFEFEFEFEFEFEFEFEFEFEFEF02
:101AF400EFEFEFEFEFEFEFEFEFEFEFEFEFEFEFEFF2
:101B0400EFEFEFEFEFEFEFEFEFEFEFEFEFEFEFEFE1
:101B1400EFEFEFEFEFEFEFEFEFEFEFEFEFEFEFEFD1
:101B2400EFEFEFEFEFEFEFEFEFEFEFEFEFEFEFEFC1
:101B3400EFEFEFEFEFEFEFEFEFEFFF46414E005423
:101B4400535400435241444C45200046414E5350A7
:101B54004545442000525354002A43004552520044
:101B64002D2D2D004653480046534C00414443005C
:101B7400534C50004156470054474E00544F4600C2
:081B84004954480044004900E7
:00000001FF
