:100000000C943B000C9458000C9458000C9458002D
:100010000C9458000C9458000C9458000C94580000
:100020000C9458000C9458000C9458000C94A101A6
:100030000C947D010C9458000C9458000C945800BA
:100040000C9428040C9458000C9458000C945800FC
:100050000C9458000C9458000C9458000C945800C0
:100060000C9458000C9458001F0521052305250504
:10007000270529052B0511241FBECFEFD8E0DEBFD1
:10008000CDBF13E0A0E0B1E0EEE7F9E102C00590DA
:100090000D92A830B107D9F723E0A8E0B3E001C082
:1000A0001D92A634B207E1F70E944F060C94BD0CD6
:1000B0000C940000CF93DF93EC01888599852A8109
:1000C0003B81821793072CF02C813D81281739073B
:1000D00024F48E819F819987888769858A859B858D
:1000E0000E949D0C68858C859D85DF91CF910C9435
:1000F0009D0C1F93CF93DF93EC018A859B850E9413
:10010000950C182F8C859D850E94950C212F30E031
:10011000322F2227A901482BCA012A813B8182174D
:1001200093072CF02C813D812817390714F48E8118
:100130009F8199878887DF91CF911F910895EAEA7F
:10014000F1E08681978191878087ECE9F1E08681F3
:10015000978191878087EEE8F1E08681978191878A
:100160008087E0E8F1E08681978191878087E2E7E8
:10017000F1E08681978191878087E4E6F1E08681CE
:10018000978191878087E6E5F1E086819781918765
:100190008087E8E4F1E08681978191878087EAE3B0
:1001A000F1E08681978191878087109235011092C6
:1001B00034011092270110922601E0E1F1E08681DE
:1001C000978191878087E2E0F1E08681978191872E
:1001D00080878AEA91E00E945A008CE991E00E94AF
:1001E0005A008EE891E00E945A0080E891E00E9457
:1001F0005A0082E791E00E945A0084E691E00E9452
:100200005A0086E591E00E945A0088E491E00E943D
:100210005A008AE391E00E945A008CE291E00E9429
:100220005A008EE191E00E945A0080E191E00E9424
:100230005A0082E091E00C945A00FC0101900020E9
:10024000E9F73197E81BF90BDC012C91BF016150F4
:100250007109AD01481B590B461757072CF411962D
:100260003C9111973D93F5CFE80FF91F319720830B
:10027000089541E062E082E00E94660540E060E0AF
:1002800081E00E94660540E061E080E00E94660532
:100290002FEF83ED90E3215080409040E1F700C0C4
:1002A000000008959FB7F894E1E8F0E080818C7F2A
:1002B0008083808184608083A0E8B0E08C918C7F13
:1002C0008C9380818860808380818F7E80838C91F5
:1002D0008F708C9320E832E030938900209388005F
:1002E00028E030E030938B0020938A00EFE6F0E0C6
:1002F0008081866080839FBF08951F920F920FB602
:100300000F9211242F933F934F935F936F937F939B
:100310008F939F93AF93BF93EF93FF930E94060534
:10032000FF91EF91BF91AF919F918F917F916F91CD
:100330005F914F913F912F910F900FBE0F901F90A3
:1003400018951F920F920FB60F9211242F938F932F
:100350009F9383B1909145038095282F29279091F1
:1003600012039223892F8095809312039091110399
:100370009223982790931103822389239091450318
:10038000982790934503209145039091440382233D
:10039000892B8093440380914503847219F484E18E
:1003A0008093100380911003815019F08093100303
:1003B0000BC088E080931003809145039091420325
:1003C0008472892B80934203809143038F5F8093D3
:1003D0004303833310F0109243039F918F912F9129
:1003E0000F900FBE0F901F9018951F93CF93DF9320
:1003F000EC01CB010E94C8052FE78FE492E1215068
:1004000080409040E1F700C0000080E20E94DE04DE
:10041000882361F0888599852C813D818217930717
:100420001CF401969987888711E03EC084E00E9401
:10043000DE04882349F0888599852A813B81281725
:10044000390794F70197EECF80E20E94E9048823F0
:1004500059F0888599852C813D812A503109821770
:10046000930714F70A96DECF80E20E94F004811110
:10047000F0CF84E00E94E904882359F088859985AB
:100480002A813B81265F3F4F281739076CF60A9770
:10049000C9CF84E00E94F0048111F0CF84E20E9471
:1004A000F60411E0811110E0888599850E94960577
:1004B000113009F4AACF0E943C06CE010E945A00D6
:1004C0002FEF89E698E1215080409040E1F700C08D
:1004D0000000DF91CF911F910C9446066091AA0114
:1004E0007091AB018AEA91E00E94F50160919C0154
:1004F00070919D018CE991E00E94F50160918E015F
:1005000070918F018EE891E00E94F5016091800169
:100510007091810180E891E00E94F5016091720183
:100520007091730182E791E00E94F501609164018E
:100530007091650184E691E00E94F50160914801A7
:100540007091490188E491E00E94F50160913A01BF
:1005500070913B018AE391E00E94F50160911E01D8
:1005600070911F018EE191E00E94F50160911001F0
:100570007091110180E191E00E94F501609102010A
:100580007091030182E091E00C94F50110927C00DF
:1005900087E080937A0080917A00806880937A0067
:1005A00080917A00806480937A0080917A0086FD41
:1005B000FCCF8091780090917900089590917C0013
:1005C000907E8F71892B80937C0080917A0080646B
:1005D00080937A0080917A0086FDFCCF809178002C
:1005E000909179000895299A219A84B18B7D84B9DC
:1005F00085B1846285B924982C9A439A3B9A8AB132
:100600008FEF8AB984B1816C84B90E9452010E9433
:10061000C60280E090E00E94950C823239F00E9480
:100620009F0062E280E090E00E94AF0C1D9905C03F
:100630001A9903C00E949F002CC01D992AC08BEB01
:1006400092E00E94C8052FEF89E698E12150804092
:100650009040E1F700C000008FEB92E00E94C805D7
:100660002FEF89E698E1215080409040E1F700C0EB
:10067000000043982FEF84E39CE02150804090409D
:10068000E1F700C0000085E00E94DE020E949605AE
:10069000F1CF8AEA91E00E9479008CE991E00E9412
:1006A00079008EE891E00E94790080E891E00E9454
:1006B000790082E791E00E94790084E691E00E944F
:1006C000790086E591E00E94790088E491E00E943B
:1006D00079008AE391E00E9479008CE291E00E9427
:1006E00079008EE191E00E94790080E191E00E9422
:1006F000790082E091E00C947900CF93DF93CDB73D
:10070000DEB762970FB6F894DEBF0FBECDBF88E0AC
:10071000E3ECF2E0DE011B9601900D928A95E1F781
:100720008AE0EBECF2E0DE01119601900D928A95E1
:10073000E1F7299A1C9B12C0CE010B960E94C805B6
:10074000CE010B960E941D012FEF84E39CE0215007
:1007500080409040E1F700C00000ECCF43982FEFBD
:100760008DE399E4215080409040E1F700C0000003
:1007700085E00E94DE022091180130911901821754
:10078000930738F020910A0130910B01281739079F
:10079000D0F4439ACE0101960E94E8052FEF83ED35
:1007A00090E3215080409040E1F700C000000E949B
:1007B00019062FEF89E698E1215080409040E1F73B
:1007C00000C00000E7CF439A62960FB6F894DEBFF0
:1007D0000FBECDBFDF91CF910895789484B582602C
:1007E00084BD84B5816084BD85B5826085BD85B5D5
:1007F000816085BDEEE6F0E0808181608083E1E884
:10080000F0E01082808182608083808181608083BB
:10081000E0E8F0E0808181608083E1EBF0E08081BE
:1008200084608083E0EBF0E0808181608083EAE790
:10083000F0E0808184608083808182608083808119
:100840008E7F80838081806880831092C1000895AC
:100850001F920F920FB60F9211242F933F938F93F5
:100860009F93AF93BF938091080390910903A09148
:100870000A03B0910B033091390326E0230F2D3783
:1008800020F40296A11DB11D05C029E8230F03968F
:10089000A11DB11D20933903809308039093090390
:1008A000A0930A03B0930B0380910C0390910D0366
:1008B000A0910E03B0910F030196A11DB11D80936D
:1008C0000C0390930D03A0930E03B0930F03BF91FD
:1008D000AF919F918F913F912F910F900FBE0F90ED
:1008E0001F9018952FB7F894609108037091090331
:1008F00080910A0390910B032FBF0895A895882338
:1009000019F084B78093460384B7877F84BF0FB6FE
:10091000F894A8958091600088618093600010929F
:1009200060000FBE0895A89584B7877F84BF9BE0C1
:1009300088E10FB6F894A895809360000FBE90935D
:1009400060000895A89584B7877F84BF9BE088E105
:100950000FB6F894A895809360000FBE9093600046
:100960002FEF89EF90E0215080409040E1F700C0E8
:10097000000080E00C947E048091460383FB88276E
:1009800080F90895A8950895F894909144038923D7
:100990009091440398279093440378940895F89491
:1009A00090914203892390914203982790934203A8
:1009B000789408959091450389230895F89490912F
:1009C0004503909589230C94C4040E94CF040C9491
:1009D000C4049091440389230E94CF040C94C4045E
:1009E00090914403909589230C94CF0490914403F3
:1009F0009823891380E00C94C404909144039823B5
:100A0000891380E0909145038923089580914103E3
:100A10008F5F883119F08093410302C01092410327
:100A200080914103E82FE7708E2F90E0FC01319711
:100A3000E730F10590F4EC5CFF4F0C94470A8DEF22
:100A40000DC08BEF0BC087EF09C08FEE07C08FED95
:100A500005C08FEB03C08FE701C08EEF9FEF9BB9FE
:100A600090914103969596959695913089F050F026
:100A70009230A9F42E9A9091BA01892B8BB92898BB
:100A80002F9810C0289A9091B801892B8BB908C073
:100A90002F9A9091B901892B8BB9289802C0289878
:100AA0002F982E9880918A0090918B0080389240E8
:100AB00019F488E090E005C080918A0090918B0045
:100AC000089690938B0080938A000895E62FF0E0BB
:100AD000E554FE4F908141119F7EE82FF0E0E854ED
:100AE000FE4F908308950F931F93CF93DF938091D0
:100AF000400380FF16C0DFB7F8940AE313E0C0E0BC
:100B0000F80143810F5F1F4F60818C2F0E946605A3
:100B1000CF5FC330A9F7809140038E7F809340035D
:100B2000DFBFDF91CF911F910F9108959C0197FF37
:100B30000BC081E080933D0380933E0380933F038D
:100B400031952195310904C010923E0310923F0364
:100B5000EAE0F0E0C901BF010E94140A80933A0361
:100B6000CB01BF010E94140A80933B03C90164E6D4
:100B700070E00E94140ACB01BF010E94140A809306
:100B80003C03809140038160809340030C94730583
:100B90002FEF20933A0320933B0320933C031092C2
:100BA0003D0310923E0310923F03DC01EDE3F3E0BE
:100BB0009D91911107C08091400381608093400313
:100BC0000C947305929383E0EA33F80789F7F3CF27
:100BD0001F93CF93DF93FC018081882331F181E063
:100BE0009181911180E091E02281211190E0EF014B
:100BF000982B19F48381811103C0CE010E94C8058E
:100C000010E0CE01810F911DFC012281222369F0A9
:100C10000E94C8052FEF84E39CE021508040904063
:100C2000E1F700C000001F5FECCFDF91CF911F9173
:100C30000895EAE3F3E08FEF808381838283138258
:100C400014821582E0E4F3E08081816080830C945B
:100C5000730581E080933D03E0E4F3E080818160EF
:100C600080830C94730510923D03E0E4F3E08081EF
:100C7000816080830C94730581E080933E03E0E4FF
:100C8000F3E08081816080830C94730510923E03B1
:100C9000E0E4F3E08081816080830C94730581E05F
:100CA0000E947E040E94ED030E94F3020E94BC0495
:100CB0008823D9F0299A439885ED92E00E94C805CF
:100CC0000FEF19E628E1015010402040E1F700C085
:100CD00000000E9419063FEF89E698E131508040FC
:100CE0009040E1F700C00000E7CF0E9439010E9468
:100CF000A2040E947D030E9493043324339480E075
:100D00000E94DE02EC0180916C0190916D0164E61D
:100D100070E00E94140ACE010E94000A80917A01BC
:100D200090917B01680F791F77FD05C070933803A0
:100D30006093370304C010923803109237038091F8
:100D4000340190913501019711F01C990CC0299A3A
:100D50000E947204609333037093340380933503CD
:100D6000909336031DC11C9B1AC120915E013091E6
:100D70005F018091580190915901281739070CF4AF
:100D80000EC18091310390913203863292400CF073
:100D900006C10E9472040091330310913403209124
:100DA0003503309136036B017C01C01AD10AE20A87
:100DB000F30AA0914201B091430120E63AEE0E946D
:100DC0004D0AC616D706E806F90608F0E8C04398AB
:100DD0008091310390913203C0905E01D0905F0109
:100DE000C81AD90A00912F0310913003081B190B60
:100DF000C601D7FE04C0882799278C199D09209128
:100E00008801309189010D2C000CEE08FF08821733
:100E10009307ACF480912B0390912C03A0912D03A8
:100E2000B0912E038C0D9D1DAE1DBF1D80932B0315
:100E300090932C03A0932D03B0932E0308C010921F
:100E40002B0310922C0310922D0310922E0360910D
:100E50002B0370912C0380912D0390912E030E94FF
:100E60009C0B4B015C016091A4017091A501072EC0
:100E7000000C880B990B0E949C0B20E030E44CE1A5
:100E800056E40E94F20A9B01AC01C501B4010E9424
:100E9000280C4B015C016091B2017091B301072EE7
:100EA000000C880B990B0E949C0B20E030E048EC72
:100EB00052E40E94F20A2B013C01C701B6010E94D4
:100EC0009C0B9B01AC01C301B2010E94280C9B0149
:100ED000AC01C501B4010E94860A6B017C016091DE
:100EE000960170919701072E000C880B990B0E94B8
:100EF0009C0B20E030E048EC51E40E94F20A4B01E8
:100F00005C01B801110F880B990B0E949C0B9B018F
:100F1000AC01C501B4010E94280C9B01AC01C701C2
:100F2000B6010E94860A0E94640B70932A036093A4
:100F300029036130724034F020E032E030932A031C
:100F4000209329038091290390912A0397FF04C0DD
:100F500010922A031092290320912703309128032D
:100F60008091290390912A032817390724F40E94BD
:100F70002906299803C0299A0E94330680912703E5
:100F8000909128030196909328038093270381155D
:100F9000924041F4109228031092270303C0299A2B
:100FA0000E9433066091370370913803AB01770FCD
:100FB000660B770B8091230390912403A091250366
:100FC000B09126038A019B01080F191F2A1F3B1F9E
:100FD000C901B80100932303109324032093250330
:100FE0003093260320912103309122032F5F3F4F3E
:100FF00030932203209321034091500150915101DD
:1010000024173507F1F44091310350913203509386
:10101000300340932F03032E000C440B550B0E940A
:10102000280A309332032093310310922303109245
:10103000240310922503109226031092220310928B
:10104000210300913103109132030E32110584F512
:1010500080912003882381F080910101882361F031
:101060000E94720460931C0370931D0380931E03FF
:1010700090931F031092010180910101811121C001
:101080000E947204C0901C03D0901D03E0901E03C8
:10109000F0901F03DC01CB018C199D09AE09BF093B
:1010A00088399A43A105B10560F030921B0309C04D
:1010B000309220033092010110921B030C33110572
:1010C000ECF41C9909C0809134019091350101978D
:1010D00019F4073211057CF01C990FC0809134017E
:1010E00090913501892B49F40E32110534F4809129
:1010F0001B03882321F0439A02C01C99439880E285
:101100000E94DE048823E9F00E94720460931703B2
:10111000709318038093190390931A0380915E01D2
:1011200090915F0120915A0130915B0182179307E2
:101130002CF4019690935F0180935E011092000160
:10114000A3C084E00E94DE048823B9F00E947204E8
:1011500060931703709318038093190390931A03F5
:1011600080915E0190915F01209158013091590169
:10117000281739071CF70197DDCF80E20E94E904A8
:101180008823D1F00E9472046093170370931803B0
:101190008093190390931A0380915E0190915F01EF
:1011A00020915A0130915B01A9014A5051098417DD
:1011B000950764F50A96BECF80E20E94F004811183
:1011C000E1CF84E00E94E9048823D1F00E947204F8
:1011D00060931703709318038093190390931A0375
:1011E00080915E0190915F012091580130915901E9
:1011F000A901465F5F4F4817590744F40A979ACFF1
:1012000084E00E94F0048111E1CF05C030935F01BA
:1012100020935E0193CF84E20E94FD048823A1F114
:10122000299A80E00E947E043FE385E898E03150EF
:1012300080409040E1F700C0000084E20E94E90491
:10124000882319F00E946E021DC084E20E94C4042B
:10125000809134019091350101E080279093350110
:101260008093340110920001892B51F40E94720482
:1012700060931703709318038093190390931A03D4
:10128000109243030E9493040091310310913203A2
:10129000063222E012075CF1299A439880E00E940E
:1012A0007E0489ED92E00E94C8053FEF89E698E14F
:1012B000315080409040E1F700C000008CED92E09A
:1012C0000E94C8050FEF13ED20E3015010402040AD
:1012D000E1F700C000000E9419063FEF89E698E19F
:1012E000315080409040E1F700C00000DACF0E940A
:1012F0007204C0901703D0901803E0901903F09087
:101300001A03DC01CB018C199D09AE09BF09803D90
:101310009740A105B10560F480914303853018F42E
:101320000E94190651C080915E0190915F014AC0F0
:1013300080910001811117C00E943C0686E591E072
:101340000E945A008CE291E00E945A000E947204AE
:101350006093130370931403809315039093160303
:101360003092000131C080913401909135010932F1
:10137000110564F4019729F480912C0190912D01BD
:1013800002C080EE92E00E94C8051EC0019729F4B9
:1013900080914303843180F314C0809126019091A1
:1013A0002701019711F4CE010DC080915E0190914B
:1013B0005F019801281B390B2E5F3F4F2530310507
:1013C00008F0C8010E9496050E9472040091130360
:1013D000109114032091150330911603DC01CB0109
:1013E000801B910BA20BB30B853F9140A105B1056A
:1013F00010F00E9446060E9473050E94C2047FCC32
:10140000AA1BBB1B51E107C0AA1FBB1FA617B7072A
:1014100010F0A61BB70B881F991F5A95A9F7809546
:101420009095BC01CD01089597FB072E16F400940A
:1014300007D077FD09D00E94000A07FC05D03EF4D2
:10144000909581959F4F0895709561957F4F089570
:10145000052E97FB1EF400940E943F0A57FD07D00B
:101460000E94540A07FC03D04EF40C943F0A509596
:101470004095309521953F4F4F4F5F4F0895909580
:101480008095709561957F4F8F4F9F4F0895EE0F18
:10149000FF1F0590F491E02D09940E94760AB7FF92
:1014A0000895821B930B0895A1E21A2EAA1BBB1B61
:1014B000FD010DC0AA1FBB1FEE1FFF1FA217B30720
:1014C000E407F50720F0A21BB30BE40BF50B661F36
:1014D000771F881F991F1A9469F7609570958095FA
:1014E00090959B01AC01BD01CF010895A29FB00171
:1014F000B39FC001A39F700D811D1124911DB29F48
:10150000700D811D1124911D08955058BB27AA27E5
:101510000E949D0A0C94EE0B0E94E00B38F00E9492
:10152000E70B20F039F49F3F19F426F40C94DD0BFF
:101530000EF4E095E7FB0C94D70BE92F0E94FF0B0C
:1015400058F3BA17620773078407950720F079F4F8
:10155000A6F50C94210C0EF4E0950B2EBA2FA02DBD
:101560000B01B90190010C01CA01A0011124FF2750
:10157000591B99F0593F50F4503E68F11A16F0404B
:10158000A22F232F342F4427585FF3CF469537954A
:101590002795A795F0405395C9F77EF41F16BA0B0F
:1015A000620B730B840BBAF09150A1F0FF0FBB1FBD
:1015B000661F771F881FC2F70EC0BA0F621F731F06
:1015C000841F48F4879577956795B795F7959E3F63
:1015D00008F0B0CF9395880F08F09927EE0F9795F4
:1015E000879508950E94060B0C94EE0B0E94E70B62
:1015F00058F00E94E00B40F029F45F3F29F00C9472
:10160000D70B51110C94220C0C94DD0B0E94FF0B94
:1016100068F39923B1F3552391F3951B550BBB2721
:10162000AA2762177307840738F09F5F5F4F220F66
:10163000331F441FAA1FA9F335D00E2E3AF0E0E85D
:1016400032D091505040E695001CCAF72BD0FE2FA7
:1016500029D0660F771F881FBB1F2617370748073B
:10166000AB07B0E809F0BB0B802DBF01FF279358F3
:101670005F4F3AF09E3F510578F00C94D70B0C94D5
:10168000220C5F3FE4F3983ED4F3869577956795F7
:10169000B795F7959F5FC9F7880F911D9695879528
:1016A00097F90895E1E0660F771F881FBB1F621747
:1016B00073078407BA0720F0621B730B840BBA0B05
:1016C000EE1F88F7E09508950E946B0B6894B111A6
:1016D0000C94220C08950E94070C88F09F5798F0F4
:1016E000B92F9927B751B0F0E1F0660F771F881F27
:1016F000991F1AF0BA95C9F714C0B13091F00E9441
:10170000210CB1E008950C94210C672F782F8827C5
:10171000B85F39F0B93FCCF3869577956795B39567
:10172000D9F73EF490958095709561957F4F8F4FD6
:101730009F4F0895E89409C097FB3EF490958095DB
:10174000709561957F4F8F4F9F4F9923A9F0F92F87
:1017500096E9BB279395F695879577956795B79505
:10176000F111F8CFFAF4BB0F11F460FF1BC06F5FEB
:101770007F4F8F4F9F4F16C0882311F096E911C0FD
:10178000772321F09EE8872F762F05C0662371F01E
:1017900096E8862F70E060E02AF09A95660F771F32
:1017A000881FDAF7880F9695879597F9089597F926
:1017B0009F6780E870E060E008959FEF80EC0895F7
:1017C00000240A9416161706180609060895002420
:1017D0000A9412161306140605060895092E03949A
:1017E000000C11F4882352F0BB0F40F4BF2B11F40E
:1017F00060FF04C06F5F7F4F8F4F9F4F089557FD6D
:101800009058440F551F59F05F3F71F04795880F6E
:1018100097FB991F61F09F3F79F087950895121605
:1018200013061406551FF2CF4695F1DF08C01616B1
:1018300017061806991FF1CF869571056105089462
:101840000895E894BB2766277727CB0197F9089579
:101850000E943B0C0C94EE0B0E94E00B38F00E94AF
:10186000E70B20F0952311F00C94D70B0C94DD0BB3
:1018700011240C94220C0E94FF0B70F3959FC1F36E
:10188000950F50E0551F629FF001729FBB27F00D2E
:10189000B11D639FAA27F00DB11DAA1F649F662783
:1018A000B00DA11D661F829F2227B00DA11D621FD2
:1018B000739FB00DA11D621F839FA00D611D221F8C
:1018C000749F3327A00D611D231F849F600D211D70
:1018D000822F762F6A2F11249F5750409AF0F1F0F3
:1018E00088234AF0EE0FFF1FBB1F661F771F881F5C
:1018F00091505040A9F79E3F510580F00C94D70BB2
:101900000C94220C5F3FE4F3983ED4F386957795D0
:101910006795B795F795E7959F5FC1F7FE2B880F01
:10192000911D9695879597F90895F999FECF92BDE7
:1019300081BDF89A992780B50895262FF999FECF91
:1019400092BD81BDF89A019700B4021639F01FBA12
:1019500020BD0FB6F894FA9AF99A0FBE0895262F73
:10196000F999FECF1FBA92BD81BD20BD0FB6F89484
:0E197000FA9AF99A0FBE01960895F894FFCFE7
:10197E000101E4022C019001900190011400150068
:10198E00E8027800B4008200820012001300EC021C
:10199E0000000100000000001C001D00BB02000042
:1019AE000100000000001A001B00F00200001E00E3
:1019BE000A000A0010001100F4026400E703FA00A6
:1019CE00FA000E000F00D4023200F4014B004B005F
:1019DE000C000D00F8026400E703640064001E00B2
:1019EE001F00FC029CFF6400210021000A000B0076
:1019FE000003000064002D002D0008000900040300
:101A0E000000E703F401F4010600070006030000DE
:101A1E00E7030F000F0004000500F2020000E703C9
:101A2E008A028A0202000300FFFFFF505F381A1776
:101A3E0092905E1016EFEFEFEFEFEFEFEFEFEFEFAD
:101A4E00EFEFEFEFEFEFEFEFEFEFEFFFEFEFEFEF88
:101A5E00EFEFEFEFEF36EFEFBFEFEFEFEFEFEFEF71
:101A6E00EFEFEFEFEFEFEFEFEFEFEFEF1491F01986
:101A7E00B0B49095DFEFEFF1EF549934EFBD92B122
:101A8E00D9D9EFEFEFEFEFEFEFEFEFEFEFEFEFEF84
:101A9E00EFEFEFEFEFEFEFEFEFEFEFEFEFEFEFEF48
:101AAE00EFEFEFEFEFEFEFEFEFEFEFEFEFEFEFEF38
:101ABE00EFEFEFEFEFEFEFEFEFEFEFEFEFEFEFEF28
:101ACE00EFEFEFEFEFEFEFEFEFEFEFEFEFEFEFEF18
:101ADE00EFEFEFEFEFEFEFEFEFEFEFEFEFEFEFEF08
:101AEE00EFEFEFEFEFEFEFEFEFEFEFEFEFEFEFEFF8
:101AFE00EFEFEFEFEFEFEFEFEFEFEFEFEFEFEFEFE8
:101B0E00EFEFEFEFEFEFEFEFEFEFEFEFEFEFEFEFD7
:101B1E00EFEFEFEFEFEFEFEFEFEFEFEFEFEFEFEFC7
:101B2E00EFEFEFEFEFEFEFEFEFEFFF46414E005429
:101B3E00535400435241444C45200046414E5350AD
:101B4E004545442000525354002A4300455252004A
:101B5E002D2D2D004653480046534C004144430062
:101B6E00534C50004156470054474E00544F4600C8
:081B7E004954480044004900ED
:00000001FF
