:100000000C9434000C9451000C9451000C94510049
:100010000C9451000C9451000C9451000C9451001C
:100020000C9451000C9451000C9451000C94DD017F
:100030000C9468010C9451000C9451000C945100E4
:100040000C94A6050C9451000C9451000C94510092
:100050000C9451000C9451000C9451000C945100DC
:100060000C9451000C94510011241FBECFEFD8E026
:10007000DEBFCDBF13E0A0E0B1E0E6E6F9E102C0EB
:1000800005900D92A830B107D9F723E0A8E0B3E0BE
:1000900001C01D92A634B207E1F70E9442060C94FB
:1000A000B10C0C940000CF93DF93EC018885998507
:1000B0002A813B81821793072CF02C813D812817E0
:1000C000390724F48E819F819987888769858A857D
:1000D0009B850E94910C68858C859D85DF91CF91D1
:1000E0000C94910C1F93CF93DF93EC018A859B8531
:1000F0000E94890C182F8C859D850E94890C912F58
:100100002A813B81821793075CF02C813D8128175F
:10011000390734F099878887DF91CF911F9108952F
:100120008E819F81F7CFEAEAF1E0868197819187FE
:100130008087ECE9F1E08681978191878087EEE8FE
:10014000F1E08681978191878087E0E8F1E0868100
:10015000978191878087E2E7F1E086819781918797
:100160008087E4E6F1E08681978191878087E6E5E4
:10017000F1E08681978191878087E8E4F1E08681CC
:10018000978191878087EAE3F1E086819781918763
:10019000808710923501109234011092270110923D
:1001A0002601E0E1F1E08681978191878087E2E096
:1001B000F1E086819781918780878AEA91E00E94A9
:1001C00053008CE991E00E9453008EE891E00E9478
:1001D000530080E891E00E94530082E791E00E9482
:1001E000530084E691E00E94530086E591E00E946E
:1001F000530088E491E00E9453008AE391E00E945A
:1002000053008CE291E00E9453008EE191E00E9445
:10021000530080E191E00E94530082E091E00C9451
:100220005300E62FF0E0E554FE4F908141119F7E90
:10023000E82FF0E0E854FE4F90830895CF93DF93CA
:10024000FC01DC010D900020E9F71197A81BB90B08
:100250008081EF01AD01415051099E012E1B3F0BE2
:10026000241735073CF0EA0FFB1F31978083DF919D
:10027000CF91089599819993F0CF9FB7F894E1E8D1
:10028000F0E080818C7F8083808184608083A0E81F
:10029000B0E08C918C7F8C9380818860808380819A
:1002A0008F7E80838C918F708C9320E832E0309326
:1002B00089002093880028E030E030938B00209361
:1002C0008A00EFE6F0E08081866080839FBF08951A
:1002D0001F920F920FB60F9211242F938F939F931B
:1002E000EF93FF9380911A038F5F8831A9F0809379
:1002F0001A03E0911A03E770E1508EEFE73080F4C3
:10030000F0E0EB57FE4F0C943B0A8F019E01A001D9
:10031000A201A401A601A80110921A03EACF8DEF51
:100320009FEF9BB990911A0396959695969591306B
:10033000C1F080F09230E9F0289811C08BEFF0CF37
:1003400087EFEECF8FEEECCF8FEDEACF8FEBE8CFDC
:100350008FE7E6CF289A9091B801892B8BB92F9817
:1003600006C02F9A9091B901892B8BB928982E98A5
:1003700007C02E9A9091BA01892B8BB928982F9893
:1003800080918A0090918B008038924081F488E0BF
:1003900090E090938B0080938A00FF91EF919F9162
:1003A0008F912F910F900FBE0F901F9018958091F5
:1003B0008A0090918B000896ECCF1F920F920FB697
:1003C0000F9211242F933F934F938F939F9383B159
:1003D000209145038095282790911903392F3223C6
:1003E00030953093190380911803482F4223342706
:1003F00030931803892B8095822390914503982789
:100400009093450390914503209144038923822BC7
:100410008093440380914503847219F484E18093AE
:100420001703809117038150A9F0809317038091DF
:1004300043038F5F80934303833310F01092430391
:100440009F918F914F913F912F910F900FBE0F90E1
:100450001F90189588E08093170380914503909131
:1004600042038472892B80934203E1CFF8949091E8
:1004700044038923909144039827909344037894EC
:100480000895F8949091420389239091420398270C
:100490009093420378940895909145038923089599
:1004A000F89490914503909589230C9436020E940C
:1004B00041020C9436029091440389230E94410228
:1004C0000C94360290914403909589230C94410238
:1004D000909144039823981380E00C9436029091F5
:1004E00044039823981380E090914503892308954D
:1004F0000F931F93CF93DF938091160380FF16C055
:10050000DFB7F89400E113E0C0E0F80143810F5F2A
:100510001F4F60818C2F0E941101CF5FC330A9F75C
:10052000809116038E7F80931603DFBFDF91CF91FA
:100530001F910F910895E0E1F3E08FEF80838183B5
:100540008283138214821582E6E1F3E08081816068
:1005500080830C94780281E080931303E6E1F3E05A
:100560008081816080830C94780210921303E6E10D
:10057000F3E08081816080830C94780281E0809335
:100580001403E6E1F3E08081816080830C947802BB
:1005900010921403E6E1F3E08081816080830C9483
:1005A00078029C0197FF2AC081E080931303809317
:1005B000140380931503319521953109EAE0F0E0A9
:1005C000C901BF010E94080A80931003CB01BF013B
:1005D0000E94080A80931103C90164E670E00E943A
:1005E000080ACB01BF010E94080A80931203809180
:1005F00016038160809316030C9478021092140302
:1006000010921503DBCFFC018FEF809310038093D2
:10061000110380931203109213031092140310928B
:1006200015038081882359F08093120381818823E8
:1006300031F08093110382818111809310038091A6
:1006400016038160809316030C9478021F93CF9356
:10065000DF93EC0188818823C1F081E099819111B9
:1006600080E091E02A81211190E0892B19F48B819F
:10067000811103C0CE010E94030310E0CE01810F5F
:10068000911DFC012281211104C0DF91CF911F91A6
:1006900008950E9403032FEF84E39CE021508040E3
:1006A0009040E1F700C000001F5FE8CFE0E1F3E019
:1006B0001082118282E082831382148281E085831A
:1006C000E6E1F3E08081816080830E9478022FEF71
:1006D00083ED90E3215080409040E1F700C000009E
:1006E00008951F93CF93DF93EC01CB010E94030386
:1006F0002FE78FE492E1215080409040E1F700C065
:10070000000080E20E945002882329F188859985A3
:100710002C813D8182179307D4F011E0888599855B
:100720000E94D102113069F30E94BE02CE010E94E4
:1007300053002FEF89E698E1215080409040E1F787
:1007400000C00000DF91CF911F910C94C802019668
:1007500099878887E2CF84E00E945002882349F07D
:10076000888599852A813B8128173907B4F6019736
:10077000EFCF80E20E945B02882359F0888599853B
:100780002C813D812A5031098217930734F60A964D
:10079000DFCF80E20E9462028111F0CF84E00E94EC
:1007A0005B02882361F0888599852A813B81265FD9
:1007B0003F4F281739070CF0B0CF0A97C9CF84E014
:1007C0000E9462028111EFCF84E20E94680211E070
:1007D000882309F4A3CF10E0A1CF6091AA01709102
:1007E000AB018AEA91E00E94710360919C017091D3
:1007F0009D018CE991E00E94710360918E017091DE
:100800008F018EE891E00E947103609180017091E8
:10081000810180E891E00E94710360917201709102
:10082000730182E791E00E9471036091640170910D
:10083000650184E691E00E94710360914801709126
:10084000490188E491E00E94710360913A0170913E
:100850003B018AE391E00E94710360911E01709157
:100860001F018EE191E00E9471036091100170916F
:10087000110180E191E00E94710360910201709189
:10088000030182E091E00C94710310927C0087E0F8
:1008900080937A0080917A00806880937A008091BA
:1008A0007A00806480937A0080917A0086FDFCCF84
:1008B0008091780090917900089590917C00907ECD
:1008C0008F71982B90937C0080917A008064809344
:1008D0007A0080917A0086FDFCCF8091780090911B
:1008E00079000895299A219A84B18B7D84B985B1C4
:1008F000846285B924982C9A439A3B9A8AB18FEFE7
:100900008AB984B1816C84B90E943D010E9445047A
:1009100090E080E00E94890C823239F00E949300BE
:1009200062E290E080E00E94A30C1D9938C01A9901
:1009300036C00E9493008AEA91E00E9472008CE91E
:1009400091E00E9472008EE891E00E94720080E8BF
:1009500091E00E94720082E791E00E94720084E6BA
:1009600091E00E94720086E591E00E94720088E4A6
:1009700091E00E9472008AE391E00E9472008CE292
:1009800091E00E9472008EE191E00E94720080E18D
:1009900091E00E94720082E091E00C9472001D9937
:1009A000CACF8BEB92E00E9403032FEF89E698E118
:1009B000215080409040E1F700C000008FEB92E0B2
:1009C0000E9403032FEF89E698E121508040904078
:1009D000E1F700C0000043982FEF84E39CE0215032
:1009E00080409040E1F700C0000085E00E945D0477
:1009F0000E94D102F1CFCF93DF93CDB7DEB76297DC
:100A00000FB6F894DEBF0FBECDBF88E0E3ECF2E096
:100A1000DE011B9601900D928A95E1F78AE0EBECDE
:100A2000F2E0DE01119601900D928A95E1F7299A84
:100A30001C9935C043982FEF8DE399E421508040F5
:100A40009040E1F700C0000085E00E945D04209125
:100A50001801309119018217930738F020910A018B
:100A600030910B012817390760F5439ACE010196A2
:100A70000E9426032FEF83ED90E3215080409040A9
:100A8000E1F700C000000E949B022FEF89E698E189
:100A9000215080409040E1F700C00000E7CFCE0138
:100AA0000B960E940303CE010B960E941E012FEFAE
:100AB00084E39CE0215080409040E1F700C00000BA
:100AC000B7CF439A62960FB6F894DEBF0FBECDBF84
:100AD000DF91CF910895789484B5826084BD84B508
:100AE000816084BD85B5826085BD85B5816085BD29
:100AF000EEE6F0E0808181608083E1E8F0E0108242
:100B0000808182608083808181608083E0E8F0E082
:100B1000808181608083E1EBF0E08081846080836C
:100B2000E0EBF0E0808181608083EAE7F0E08081A3
:100B30008460808380818260808380818E7F8083D7
:100B40008081806880831092C10008951F920F9267
:100B50000FB60F9211242F933F938F939F93AF93D0
:100B6000BF938091080390910903A0910A03B0916B
:100B70000B033091410326E0230F2D3758F50296E1
:100B8000A11DB11D20934103809308039093090395
:100B9000A0930A03B0930B0380910C0390910D0373
:100BA000A0910E03B0910F030196A11DB11D80937A
:100BB0000C0390930D03A0930E03B0930F03BF910A
:100BC000AF919F918F913F912F910F900FBE0F90FA
:100BD0001F90189529E8230F0396A11DB11DD2CFB0
:100BE0002FB7F894609108037091090380910A036C
:100BF00090910B032FBF0895A895882319F084B70F
:100C00008093460384B7877F84BF0FB6F894A89576
:100C100080916000886180936000109260000FBE38
:100C20000895A89584B7877F84BF88E19BE00FB6BD
:100C3000F894A895809360000FBE9093600008958B
:100C4000A89584B7877F84BF88E19BE00FB6F894AE
:100C5000A895809360000FBE909360002FEF89EFFE
:100C600090E0215080409040E1F700C0000080E01B
:100C70000C94FC058091460383FB882780F9089536
:100C8000A895089581E00E94FC050E946B050E94D2
:100C900072040E943A068823D9F0299A439885ED78
:100CA00092E00E9403032FEF49E688E12150404083
:100CB0008040E1F700C000000E949B029FEF29E600
:100CC00048E1915020404040E1F700C00000E7CFEC
:100CD0000E9456030E9420060E94FB040E941106F7
:100CE0003324339480E00E945D04EC0180916C0118
:100CF00090916D0164E670E00E94080ACE010E94A6
:100D0000F40980917A0190917B01680F791F77FD3A
:100D10001AC07093400360933F0380913401909117
:100D20003501019711F01C9913C0299A0E94F00512
:100D300060933B0370933C0380933D0390933E0389
:100D40000E94B50215C11092400310923F03E5CFF7
:100D50001C9BA8C120915E0130915F0180915801D8
:100D600090915901281739070CF49CC180913903DF
:100D700090913A03863292400CF094C10E94F005A3
:100D800000913B0310913C0320913D0330913E03C1
:100D90006B017C01C01AD10AE20AF30AA091420158
:100DA000B091430120E63AEE0E94410AC616D706EA
:100DB000E806F90608F076C14398809139039091CE
:100DC0003A03C0905E01D0905F01C81AD90A009121
:100DD000370310913803081B190BC601D7FE04C056
:100DE000882799278C199D092091880130918901C4
:100DF0000D2C000CEE08FF08821793070CF045C17C
:100E00008091330390913403A0913503B091360360
:100E10008C0D9D1DAE1DBF1D809333039093340335
:100E2000A0933503B093360360913303709134037C
:100E300080913503909136030E94900B4B015C0129
:100E40006091A4017091A501072E000C880B990BED
:100E50000E94900B20E030E44CE156E40E94E60A48
:100E60009B01AC01C501B4010E941C0C4B015C014B
:100E70006091B2017091B301072E000C880B990BA1
:100E80000E94900B20E030E048EC52E40E94E60A19
:100E90002B013C01C701B6010E94900B9B01AC01E4
:100EA000C301B2010E941C0C9B01AC01C501B4013D
:100EB0000E947A0A6B017C01609196017091970102
:100EC000072E000C880B990B0E94900B20E030E05D
:100ED00048EC51E40E94E60A4B015C01B801110F95
:100EE000880B990B0E94900B9B01AC01C501B401CA
:100EF0000E941C0C9B01AC01C701B6010E947A0A3A
:100F00000E94580B7093320360933103613072403A
:100F100034F080E092E0909332038093310380912B
:100F200031039091320397FF04C010923203109264
:100F3000310320912F033091300380913103909140
:100F40003203281739070CF0A9C00E94AB02299878
:100F500080912F03909130030196909330038093FA
:100F60002F038115924021F41092300310922F0329
:100F700060913F0370914003072E000C880B990B82
:100F800000912B0310912C0320912D0330912E03FF
:100F9000600F711F821F931F60932B0370932C03AC
:100FA00080932D0390932E032091290330912A03DF
:100FB0002F5F3F4F30932A03209329034091500124
:100FC0005091510124173507F1F4409139035091A4
:100FD0003A035093380340933703032E000C440B1D
:100FE000550B0E941C0A30933A0320933903109248
:100FF0002B0310922C0310922D0310922E031092AB
:101000002A03109229030091390310913A030E32FA
:1010100011050CF049C080912803882381F080914C
:101020000101882361F00E94F0056093240370930E
:10103000250380932603909327031092010180914A
:101040000101811115C00E94F005C0902403D090C9
:101050002503E0902603F09027036C197D098E0983
:101060009F0968397A438105910510F03092230376
:101070001C9925C080913401909135010197F9F4B4
:1010800007321105E4F4439A2BC0109233031092F7
:1010900034031092350310923603C6CE299A0E946B
:1010A000B50256CF299A4CCE3092280330920101D6
:1010B000109223030C331105DCF2439811C01C99E4
:1010C00065C08091340190913501892B09F05EC093
:1010D0000E3211050CF05AC0809123038111D3CF39
:1010E00080E20E945002882309F453C00E94F00558
:1010F00060931F0370932003809321039093220336
:1011000080915E0190915F0120915A0130915B01C5
:10111000821793072CF4019690935F0180935E01F0
:10112000109200010091390310913A03063282E0D7
:1011300018070CF4D4C0299A439880E00E94FC055B
:1011400089ED92E00E9403039FEF29E648E1915068
:1011500020404040E1F700C000008CED92E00E948A
:1011600003038FEF93ED20E3815090402040E1F79F
:1011700000C000000E949B024FEF89E698E14150B9
:1011800080409040E1F700C00000DACF1C9BA8CF60
:1011900094CF84E00E9450028823C1F00E94F005A1
:1011A00060931F0370932003809321039093220385
:1011B00080915E0190915F01209158013091590119
:1011C000281739070CF0ACCF0197A6CF80E20E9418
:1011D0005B028823E9F00E94F00560931F0370937F
:1011E0002003809321039093220380915E019091CC
:1011F0005F0120915A0130915B01A9014A505109C8
:10120000841795074CF130935F0120935E0188CFDE
:1012100080E20E9462028111DECF84E00E945B02C4
:101220008823E1F00E94F00560931F037093200370
:10123000809321039093220380915E0190915F013E
:101240002091580130915901A901465F5F4F48171D
:101250005907CCF60A9760CF0A965ECF84E00E94C9
:1012600062028111DFCF84E20E946F02882309F4B9
:1012700059CF299A80E00E94FC058FE395E828E089
:10128000815090402040E1F700C0000084E20E94BD
:101290005B02882329F00E94ED030E94110642CFD1
:1012A00084E20E94360280913401909135019C01C4
:1012B00041E024273093350120933401109200013E
:1012C000019751F40E94F00560931F03709320036F
:1012D000809321039093220310924303DECF0E9458
:1012E000F005C0901F03D0902003E0902103F09000
:1012F00022036C197D098E099F09603D77408105A5
:10130000910538F5809143038530E0F40E949B02FB
:101310000E94F00500911B0310911C0320911D03F6
:1013200030911E03601B710B820B930B653F714064
:101330008105910510F00E94C8020E9478020E9467
:101340004006D0CC80915E0190915F010E94D10255
:10135000DFCF80910001811117C00E94BE0286E597
:1013600091E00E9453008CE291E00E9453000E94A1
:10137000F00560931B0370931C0380931D039093EF
:101380001E0330920001C4CF809134019091350149
:101390000932110564F4019739F480912C01909180
:1013A0002D010E940303B4CF80EE92E0FACF0197A3
:1013B00031F480914303843180F3C801C7CF809119
:1013C000260190912701019711F4CE01BFCF8091A2
:1013D0005E0190915F019801281B390B2E5F3F4FF2
:1013E0002530310550F7B2CFAA1BBB1B51E107C016
:1013F000AA1FBB1FA617B70710F0A61BB70B881FA5
:10140000991F5A95A9F780959095BC01CD01089533
:1014100097FB072E16F4009407D077FD09D00E94A1
:10142000F40907FC05D03EF4909581959F4F0895EF
:10143000709561957F4F0895052E97FB1EF40094DB
:101440000E94330A57FD07D00E94480A07FC03D0C8
:101450004EF40C94330A50954095309521953F4FAA
:101460004F4F5F4F089590958095709561957F4F90
:101470008F4F9F4F0895EE0FFF1F0590F491E02DC1
:1014800009940E946A0AB7FF0895821B930B08957E
:10149000A1E21A2EAA1BBB1BFD010DC0AA1FBB1F78
:1014A000EE1FFF1FA217B307E407F50720F0A21BEA
:1014B000B30BE40BF50B661F771F881F991F1A9457
:1014C00069F760957095809590959B01AC01BD0181
:1014D000CF010895A29FB001B39FC001A39F700DDB
:1014E000811D1124911DB29F700D811D1124911D2C
:1014F00008955058BB27AA270E94910A0C94E20B2A
:101500000E94D40B38F00E94DB0B20F039F49F3F8F
:1015100019F426F40C94D10B0EF4E095E7FB0C942F
:10152000CB0BE92F0E94F30B58F3BA17620773072E
:101530008407950720F079F4A6F50C94150C0EF4A9
:10154000E0950B2EBA2FA02D0B01B90190010C01D3
:10155000CA01A0011124FF27591B99F0593F50F4EB
:10156000503E68F11A16F040A22F232F342F442743
:10157000585FF3CF469537952795A795F04053953B
:10158000C9F77EF41F16BA0B620B730B840BBAF00B
:101590009150A1F0FF0FBB1F661F771F881FC2F776
:1015A0000EC0BA0F621F731F841F48F4879577958A
:1015B0006795B795F7959E3F08F0B0CF9395880F44
:1015C00008F09927EE0F9795879508950E94FA0ADB
:1015D0000C94E20B0E94DB0B58F00E94D40B40F0FD
:1015E00029F45F3F29F00C94CB0B51110C94160C8D
:1015F0000C94D10B0E94F30B68F39923B1F355239C
:1016000091F3951B550BBB27AA2762177307840715
:1016100038F09F5F5F4F220F331F441FAA1FA9F3AB
:1016200035D00E2E3AF0E0E832D091505040E69599
:10163000001CCAF72BD0FE2F29D0660F771F881FFA
:10164000BB1F261737074807AB07B0E809F0BB0BED
:10165000802DBF01FF2793585F4F3AF09E3F510501
:1016600078F00C94CB0B0C94160C5F3FE4F3983E8F
:10167000D4F3869577956795B795F7959F5FC9F7EA
:10168000880F911D9695879597F90895E1E0660F6B
:10169000771F881FBB1F621773078407BA0720F0E4
:1016A000621B730B840BBA0BEE1F88F7E09508954D
:1016B0000E945F0B6894B1110C94160C08950E945F
:1016C000FB0B88F09F5798F0B92F9927B751B0F0CE
:1016D000E1F0660F771F881F991F1AF0BA95C9F7B6
:1016E00014C0B13091F00E94150CB1E008950C9433
:1016F000150C672F782F8827B85F39F0B93FCCF3E6
:10170000869577956795B395D9F73EF49095809532
:10171000709561957F4F8F4F9F4F0895E89409C052
:1017200097FB3EF490958095709561957F4F8F4F14
:101730009F4F9923A9F0F92F96E9BB279395F6952A
:10174000879577956795B795F111F8CFFAF4BB0FA8
:1017500011F460FF1BC06F5F7F4F8F4F9F4F16C00C
:10176000882311F096E911C0772321F09EE8872F96
:10177000762F05C0662371F096E8862F70E060E052
:101780002AF09A95660F771F881FDAF7880F9695CB
:10179000879597F9089597F99F6780E870E060E072
:1017A00008959FEF80EC089500240A9416161706FA
:1017B00018060906089500240A9412161306140642
:1017C00005060895092E0394000C11F4882352F0A5
:1017D000BB0F40F4BF2B11F460FF04C06F5F7F4F5D
:1017E0008F4F9F4F089557FD9058440F551F59F044
:1017F0005F3F71F04795880F97FB991F61F09F3FFE
:1018000079F087950895121613061406551FF2CF26
:101810004695F1DF08C0161617061806991FF1CF76
:1018200086957105610508940895E894BB2766279D
:101830007727CB0197F908950E942F0C0C94E20BA7
:101840000E94D40B38F00E94DB0B20F0952311F09E
:101850000C94CB0B0C94D10B11240C94160C0E94FD
:10186000F30B70F3959FC1F3950F50E0551F629FE6
:10187000F001729FBB27F00DB11D639FAA27F00DE9
:10188000B11DAA1F649F6627B00DA11D661F829F10
:101890002227B00DA11D621F739FB00DA11D621FF5
:1018A000839FA00D611D221F749F3327A00D611D12
:1018B000231F849F600D211D822F762F6A2F1124F4
:1018C0009F5750409AF0F1F088234AF0EE0FFF1F27
:1018D000BB1F661F771F881F91505040A9F79E3F7E
:1018E000510580F00C94CB0B0C94160C5F3FE4F385
:1018F000983ED4F3869577956795B795F795E795D4
:101900009F5FC1F7FE2B880F911D9695879597F9DC
:101910000895F999FECF92BD81BDF89A992780B5B7
:101920000895262FF999FECF92BD81BDF89A0197AF
:1019300000B4021639F01FBA20BD0FB6F894FA9A17
:10194000F99A0FBE0895262FF999FECF1FBA92BDBE
:1019500081BD20BD0FB6F894FA9AF99A0FBE019690
:061960000895F894FFCF8A
:101966000101E4022C019001900190011400150080
:10197600E8027800B4008200820012001300EC0234
:1019860000000100000000001C001D00BB0200005A
:101996000100000000001A001B00F00200001E00FB
:1019A6000A000A0010001100F4026400E703FA00BE
:1019B600FA000E000F00D4023200F4014B004B0077
:1019C6000C000D00F8026400E703640064001E00CA
:1019D6001F00FC029CFF6400210021000A000B008E
:1019E6000003000064002D002D0008000900040318
:1019F6000000E703F401F4010600070006030000F7
:101A0600E7030F000F0004000500F2020000E703E1
:101A16008A028A0202000300FFFFFF505F381A178E
:101A260092905E1016EFEFEFEFEFEFEFEFEFEFEFC5
:101A3600EFEFEFEFEFEFEFEFEFEFEFFFEFEFEFEFA0
:101A4600EFEFEFEFEF36EFEFBFEFEFEFEFEFEFEF89
:101A5600EFEFEFEFEFEFEFEFEFEFEFEF1491F0199E
:101A6600B0B49095DFEFEFF1EF549934EFBD92B13A
:101A7600D9D9EFEFEFEFEFEFEFEFEFEFEFEFEFEF9C
:101A8600EFEFEFEFEFEFEFEFEFEFEFEFEFEFEFEF60
:101A9600EFEFEFEFEFEFEFEFEFEFEFEFEFEFEFEF50
:101AA600EFEFEFEFEFEFEFEFEFEFEFEFEFEFEFEF40
:101AB600EFEFEFEFEFEFEFEFEFEFEFEFEFEFEFEF30
:101AC600EFEFEFEFEFEFEFEFEFEFEFEFEFEFEFEF20
:101AD600EFEFEFEFEFEFEFEFEFEFEFEFEFEFEFEF10
:101AE600EFEFEFEFEFEFEFEFEFEFEFEFEFEFEFEF00
:101AF600EFEFEFEFEFEFEFEFEFEFEFEFEFEFEFEFF0
:101B0600EFEFEFEFEFEFEFEFEFEFEFEFEFEFEFEFDF
:101B1600EFEFEFEFEFEFEFEFEFEFFF46414E005441
:101B2600535400435241444C45200046414E5350C5
:101B36004545442000525354002A43004552520062
:101B46002D2D2D004653480046534C00414443007A
:101B5600534C50004156470054474E00544F4600E0
:081B6600495448004400490005
:00000001FF
