:100000000C943B000C9458000C9458000C9458002D
:100010000C9458000C9458000C9458000C94580000
:100020000C9458000C9458000C9458000C94E8015F
:100030000C9471010C9458000C9458000C945800C6
:100040000C94A0050C9458000C9458000C94580083
:100050000C9458000C9458000C9458000C945800C0
:100060000C9458000C945800960198019A019C0138
:100070009E01A001A20111241FBECFEFD8E0DEBF78
:10008000CDBF13E0A0E0B1E0E2E5F9E102C00590E8
:100090000D92A830B107D9F723E0A8E0B3E001C082
:1000A0001D92A634B207E1F70E94F6050C94A70C46
:1000B0000C940000CF93DF93EC01888599852A8109
:1000C0003B81821793072CF02C813D81281739073B
:1000D00024F48E819F819987888769858A859B858D
:1000E0000E94870C68858C859D85DF91CF910C944B
:1000F000870C1F93CF93DF93EC018A859B850E9429
:100100007F0C182F8C859D850E947F0C212F30E05D
:10011000322F2227A901482BCA012A813B8182174D
:1001200093072CF02C813D812817390714F48E8118
:100130009F8199878887DF91CF911F910895EAEA7F
:10014000F1E08681978191878087ECE9F1E08681F3
:10015000978191878087EEE8F1E08681978191878A
:100160008087E0E8F1E08681978191878087E2E7E8
:10017000F1E08681978191878087E4E6F1E08681CE
:10018000978191878087E6E5F1E086819781918765
:100190008087E8E4F1E08681978191878087EAE3B0
:1001A000F1E08681978191878087109235011092C6
:1001B00034011092270110922601E0E1F1E08681DE
:1001C000978191878087E2E0F1E08681978191872E
:1001D00080878AEA91E00E945A008CE991E00E94AF
:1001E0005A008EE891E00E945A0080E891E00E9457
:1001F0005A0082E791E00E945A0084E691E00E9452
:100200005A0086E591E00E945A0088E491E00E943D
:100210005A008AE391E00E945A008CE291E00E9429
:100220005A008EE191E00E945A0080E191E00E9424
:100230005A0082E091E00C945A00E62FF0E0E85F6B
:10024000FD4F908141119F7EE82FF0E0E854FE4F72
:1002500090830895FC0101900020E9F73197E81B95
:10026000F90BDC012C91BF0161507109AD01481BF4
:10027000590B461757072CF411963C9111973D9353
:10028000F5CFE80FF91F3197208308959FB7F894B1
:10029000E1E8F0E080818C7F8083808184608083CE
:1002A000A0E8B0E08C918C7F8C9380818860808303
:1002B00080818F7E80838C918F708C9320E832E0D8
:1002C000309389002093880028E030E030938B0041
:1002D00020938A00EFE6F0E08081866080839FBFF4
:1002E00008951F920F920FB60F9211242F938F93A0
:1002F0009F93AF93BF93EF93FF9380910B038F5F17
:10030000883119F080930B0302C010920B03809187
:100310000B03E82FE7708E2F90E0FC013197E73058
:10032000F10590F4EC5CFF4F0C94410C8DEF0DC087
:100330008BEF0BC087EF09C08FEE07C08FED05C0B4
:100340008FEB03C08FE701C08EEF9FEF9BB99091B9
:100350000B03969596959695913089F050F09230D2
:10036000A9F42E9A9091BA01892B8BB928982F98CD
:1003700010C0289A9091B801892B8BB908C02F9A88
:100380009091B901892B8BB9289802C028982F9891
:100390002E9880918A0090918B008038924019F4B9
:1003A00088E090E005C080918A0090918B000896CB
:1003B00090938B0080938A00FF91EF91BF91AF9152
:1003C0009F918F912F910F900FBE0F901F901895B6
:1003D0001F920F920FB60F9211242F938F939F931A
:1003E00083B1909145038095282F292790910A0386
:1003F0009223892F809580930A0390910903922379
:100400009827909309038223892390914503982785
:100410009093450320914503909144038223892BB7
:100420008093440380914503847219F484E180939E
:10043000080380910803815019F0809308030BC0D2
:1004400088E0809308038091450390914203847271
:10045000892B80934203809143038F5F80934303F2
:10046000833310F0109243039F918F912F910F903F
:100470000FBE0F901F901895F89490914403892314
:100480009091440398279093440378940895F894A6
:1004900090914203892390914203982790934203BD
:1004A00078940895F89490914503909589230C943D
:1004B0003C029091440389230E9447020C943C0221
:1004C00090914403909589230C94470290914403A2
:1004D0009823891380E00C943C0290914403982364
:1004E000891380E090914503892308950F931F930A
:1004F000CF93DF938091410380FF16C0DFB7F8945C
:100500000BE313E0C0E0F80143810F5F1F4F6081F0
:100510008C2F0E941D01CF5FC330A9F7809141034A
:100520008E7F80934103DFBFDF91CF911F910F91A9
:100530000895EBE3F3E08FEF80838183828313825E
:1005400014821582E1E4F3E08081816080830C9461
:10055000760281E080933E03E1E4F3E080818160F4
:1005600080830C94760210923E03E1E4F3E08081F4
:10057000816080830C94760281E080933F03E1E404
:10058000F3E08081816080830C94760210923F03B7
:10059000E1E4F3E08081816080830C9476029C0129
:1005A00097FF0BC081E080933E0380933F038093CD
:1005B000400331952195310904C010923F031092F8
:1005C0004003EAE0F0E0C901BF010E940E0C8093F5
:1005D0003B03CB01BF010E940E0C80933C03C90179
:1005E00064E670E00E940E0CCB01BF010E940E0C6D
:1005F00080933D03809141038160809341030C947B
:1006000076022FEF20933B0320933C0320933D037E
:1006100010923E0310923F0310924003DC01EEE380
:10062000F3E09D91911107C0809141038160809317
:1006300041030C947602929383E0EB33F80789F739
:10064000F3CF1F93CF93DF93FC018081882331F197
:1006500081E09181911180E091E02281211190E06F
:10066000EF01982B19F48381811103C0CE010E9400
:10067000010310E0CE01810F911DFC012281222394
:1006800069F00E9401032FEF84E39CE02150804039
:100690009040E1F700C000001F5FECCFDF91CF91E9
:1006A0001F910895EBE3F3E01082118282E08283D0
:1006B0001382148281E08583E1E4F3E0808181602C
:1006C00080830E9476022FEF83ED90E321508040DB
:1006D0009040E1F700C0000008951F93CF93DF938F
:1006E000EC01CB010E9401032FE78FE492E121503E
:1006F00080409040E1F700C0000080E20E9452027A
:10070000882361F0888599852C813D818217930724
:100710001CF401969987888711E03EC084E00E940E
:100720005202882349F0888599852A813B812817C0
:10073000390794F70197EECF80E20E94590288238F
:1007400059F0888599852C813D812A50310982177D
:10075000930714F70A96DECF80E20E9460028111AF
:10076000F0CF84E00E945902882359F0888599854A
:100770002A813B81265F3F4F281739076CF60A977D
:10078000C9CF84E00E9460028111F0CF84E20E9410
:10079000660211E0811110E0888599850E94CF02E0
:1007A000113009F4AACF0E94BC02CE010E945A0067
:1007B0002FEF89E698E1215080409040E1F700C09A
:1007C0000000DF91CF911F910C94C6026091AA01A5
:1007D0007091AB018AEA91E00E946D0360919C01E7
:1007E00070919D018CE991E00E946D0360918E01F2
:1007F00070918F018EE891E00E946D0360918001FD
:100800007091810180E891E00E946D036091720116
:100810007091730182E791E00E946D036091640121
:100820007091650184E691E00E946D03609148013A
:100830007091490188E491E00E946D0360913A0152
:1008400070913B018AE391E00E946D0360911E016B
:1008500070911F018EE191E00E946D036091100183
:100860007091110180E191E00E946D03609102019D
:100870007091030182E091E00C946D0310927C0072
:1008800087E080937A0080917A00806880937A0074
:1008900080917A00806480937A0080917A0086FD4E
:1008A000FCCF8091780090917900089590917C0020
:1008B000907E8F71892B80937C0080917A00806478
:1008C00080937A0080917A0086FDFCCF8091780039
:1008D000909179000895299A219A84B18B7D84B9E9
:1008E00085B1846285B924982C9A439A3B9A8AB13F
:1008F0008FEF8AB984B1816C84B90E9446010E944D
:100900003E0480E090E00E947F0C823239F00E9429
:100910009F0062E280E090E00E94990C1D9905C062
:100920001A9903C00E949F002CC01D992AC08BEB0E
:1009300091E00E9401032FEF89E698E12150804069
:100940009040E1F700C000008FEB91E00E940103AE
:100950002FEF89E698E1215080409040E1F700C0F8
:10096000000043982FEF84E39CE0215080409040AA
:10097000E1F700C0000085E00E9456040E94CF020B
:10098000F1CF8AEA91E00E9479008CE991E00E941F
:1009900079008EE891E00E94790080E891E00E9461
:1009A000790082E791E00E94790084E691E00E945C
:1009B000790086E591E00E94790088E491E00E9448
:1009C00079008AE391E00E9479008CE291E00E9434
:1009D00079008EE191E00E94790080E191E00E942F
:1009E000790082E091E00C947900CF93DF93CDB74A
:1009F000DEB762970FB6F894DEBF0FBECDBF88E0BA
:100A0000E3ECF1E0DE011B9601900D928A95E1F78F
:100A10008AE0EBECF1E0DE01119601900D928A95EF
:100A2000E1F7299A1C9B12C0CE010B960E9401038C
:100A3000CE010B960E942A012FEF84E39CE0215007
:100A400080409040E1F700C00000ECCF43982FEFCA
:100A50008DE399E4215080409040E1F700C0000010
:100A600085E00E94560420911801309119018217E7
:100A7000930738F020910A0130910B0128173907AC
:100A8000D0F4439ACE0101960E9421032FEF83ED0B
:100A900090E3215080409040E1F700C000000E94A8
:100AA00099022FEF89E698E1215080409040E1F7CC
:100AB00000C00000E7CF439A62960FB6F894DEBFFD
:100AC0000FBECDBFDF91CF910895789484B5826039
:100AD00084BD84B5816084BD85B5826085BD85B5E2
:100AE000816085BDEEE6F0E0808181608083E1E891
:100AF000F0E01082808182608083808181608083C9
:100B0000E0E8F0E0808181608083E1EBF0E08081CB
:100B100084608083E0EBF0E0808181608083EAE79D
:100B2000F0E0808184608083808182608083808126
:100B30008E7F80838081806880831092C1000895B9
:100B40001F920F920FB60F9211242F933F938F9302
:100B50009F93AF93BF938091330390913403A091FF
:100B60003503B09136033091320326E0230F2D3741
:100B700020F40296A11DB11D05C029E8230F03969C
:100B8000A11DB11D2093320380933303909334034E
:100B9000A0933503B09336038091370390913803C7
:100BA000A0913903B0913A030196A11DB11D809324
:100BB000370390933803A0933903B0933A03BF915E
:100BC000AF919F918F913F912F910F900FBE0F90FA
:100BD0001F9018952FB7F8946091330370913403E8
:100BE00080913503909136032FBF08950E946505CB
:100BF0000E946B040E94E2098823D9F0299A439845
:100C000085ED91E00E9401030FEF19E628E1015004
:100C100010402040E1F700C000000E9499023FEF21
:100C200089E698E1315080409040E1F700C0000033
:100C3000E7CF0E9452030E94C8090E94F5040E9457
:100C4000B9093324339480E00E945604EC0180916A
:100C50006C0190916D0164E670E00E940E0CCE0173
:100C60000E94FA0B80917A0190917B01680F791FA5
:100C700077FD05C0709331036093300304C0109278
:100C80003103109230038091340190913501019726
:100C900011F01C990CC0299A0E94EA0560932C035C
:100CA00070932D0380932E0390932F031DC11C9BE3
:100CB0001AC120915E0130915F018091580190919D
:100CC0005901281739070CF40EC180912A0390911D
:100CD0002B03863292400CF006C10E94EA05009177
:100CE0002C0310912D0320912E0330912F036B01C3
:100CF0007C01C01AD10AE20AF30AA0914201B09124
:100D0000430120E63AEE0E94470CC616D706E806D5
:100D1000F90608F0E8C0439880912A0390912B03CC
:100D2000C0905E01D0905F01C81AD90A00912803D3
:100D300010912903081B190BC601D7FE04C0882790
:100D400099278C199D0920918801309189010D2CDA
:100D5000000CEE08FF0882179307ACF4809124037F
:100D600090912503A0912603B09127038C0D9D1D22
:100D7000AE1DBF1D8093240390932503A0932603EB
:100D8000B093270308C010922403109225031092F9
:100D9000260310922703609124037091250380910C
:100DA0002603909127030E94010B4B015C01609187
:100DB000A4017091A501072E000C880B990B0E94CD
:100DC000010B20E030E44CE156E40E94570A9B01FD
:100DD000AC01C501B4010E948D0B4B015C01609117
:100DE000B2017091B301072E000C880B990B0E9481
:100DF000010B20E030E048EC52E40E94570A2B013E
:100E00003C01C701B6010E94010B9B01AC01C3016B
:100E1000B2010E948D0B9B01AC01C501B4010E947F
:100E2000EB096B017C016091960170919701072E8F
:100E3000000C880B990B0E94010B20E030E048EC7D
:100E400051E40E94570A4B015C01B801110F880B55
:100E5000990B0E94010B9B01AC01C501B4010E94DA
:100E60008D0B9B01AC01C701B6010E94EB090E94EA
:100E7000C90A70932303609322036130724034F0F7
:100E800020E032E030932303209322038091220359
:100E90009091230397FF04C0109223031092220322
:100EA000209120033091210380912203909123030C
:100EB0002817390724F40E94A902299803C0299A07
:100EC0000E94B30280912003909121030196909398
:100ED0002103809320038115924041F41092210355
:100EE0001092200303C0299A0E94B302609130033C
:100EF00070913103AB01770F660B770B80911C0368
:100F000090911D03A0911E03B0911F038A019B01C4
:100F1000080F191F2A1F3B1FC901B80100931C03AA
:100F200010931D0320931E0330931F0320911A0377
:100F300030911B032F5F3F4F30931B0320931A0305
:100F4000409150015091510124173507F1F440911F
:100F50002A0350912B035093290340932803032E17
:100F6000000C440B550B0E94220C30932B03209352
:100F70002A0310921C0310921D0310921E0310925C
:100F80001F0310921B0310921A0300912A03109161
:100F90002B030E32110584F580911903882381F00B
:100FA00080910101882361F00E94EA056093150396
:100FB0007093160380931703909318031092010106
:100FC00080910101811121C00E94EA05C0901503A2
:100FD000D0901603E0901703F0901803DC01CB01CA
:100FE0008C199D09AE09BF0988399A43A105B1053D
:100FF00060F03092140309C030921903309201015D
:10100000109214030C331105ECF41C9909C0809163
:10101000340190913501019719F4073211057CF0E4
:101020001C990FC08091340190913501892B49F4AE
:101030000E32110534F480911403882321F0439A71
:1010400002C01C99439880E20E9452028823E9F072
:101050000E94EA05609310037093110380931203BA
:101060009093130380915E0190915F0120915A014A
:1010700030915B01821793072CF4019690935F01E6
:1010800080935E0110920001A3C084E00E9452028E
:101090008823B9F00E94EA0560931003709311034E
:1010A000809312039093130380915E0190915F01EE
:1010B0002091580130915901281739071CF70197E1
:1010C000DDCF80E20E9459028823D1F00E94EA0518
:1010D0006093100370931103809312039093130392
:1010E00080915E0190915F0120915A0130915B01E6
:1010F000A9014A5051098417950764F50A96BECF95
:1011000080E20E9460028111E1CF84E00E945902D6
:101110008823D1F00E94EA056093100370931103B5
:10112000809312039093130380915E0190915F016D
:101130002091580130915901A901465F5F4F48172E
:10114000590744F40A979ACF84E00E946002811103
:10115000E1CF05C030935F0120935E0193CF84E21D
:101160000E946D028823A1F1299A80E00E94A409BF
:101170003FE385E898E0315080409040E1F700C0BF
:10118000000084E20E945902882319F00E94E603BD
:101190001DC084E20E943C0280913401909135018F
:1011A00001E0802790933501809334011092000173
:1011B000892B51F40E94EA05609310037093110388
:1011C0008093120390931303109243030E94B90972
:1011D00000912A0310912B03063222E012075CF1E2
:1011E000299A439880E00E94A40989ED91E00E9429
:1011F00001033FEF89E698E1315080409040E1F7EC
:1012000000C000008CED91E00E9401030FEF13ED90
:1012100020E3015010402040E1F700C000000E9490
:1012200099023FEF89E698E1315080409040E1F724
:1012300000C00000DACF0E94EA05C0901003D090F1
:101240001103E0901203F0901303DC01CB018C1921
:101250009D09AE09BF09803D9740A105B10560F425
:1012600080914303853018F40E94990251C0809107
:101270005E0190915F014AC080910001811117C009
:101280000E94BC0286E591E00E945A008CE291E047
:101290000E945A000E94EA0560930C0370930D03AC
:1012A00080930E0390930F033092000131C0809120
:1012B0003401909135010932110564F4019729F444
:1012C00080912C0190912D0102C080EE91E00E944E
:1012D00001031EC0019729F480914303843180F3F8
:1012E00014C08091260190912701019711F4CE013D
:1012F0000DC080915E0190915F019801281B390B10
:101300002E5F3F4F2530310508F0C8010E94CF0203
:101310000E94EA0500910C0310910D0320910E0329
:1013200030910F03DC01CB01801B910BA20BB30B9F
:10133000853F9140A105B10510F00E94C6020E94B0
:1013400076020E94E8097FCCA895882319F084B71B
:101350008093460384B7877F84BF0FB6F894A8951F
:1013600080916000886180936000109260000FBEE1
:101370000895A89584B7877F84BF9BE088E10FB666
:10138000F894A895809360000FBE90936000089534
:10139000A89584B7877F84BF9BE088E10FB6F89457
:1013A000A895809360000FBE909360002FEF89EFA7
:1013B00090E0215080409040E1F700C0000080E0C4
:1013C0000C94A4098091460383FB882780F9089533
:1013D000A89508955058BB27AA270E94020A0C948A
:1013E000530B0E94450B38F00E944C0B20F039F44F
:1013F0009F3F19F426F40C94420B0EF4E095E7FBA2
:101400000C943C0BE92F0E94640B58F3BA17620747
:1014100073078407950720F079F4A6F50C94860BE2
:101420000EF4E0950B2EBA2FA02D0B01B9019001FF
:101430000C01CA01A0011124FF27591B99F0593F43
:1014400050F4503E68F11A16F040A22F232F342F8B
:101450004427585FF3CF469537952795A795F040D9
:101460005395C9F77EF41F16BA0B620B730B840BEE
:10147000BAF09150A1F0FF0FBB1F661F771F881FA6
:10148000C2F70EC0BA0F621F731F841F48F48795FE
:1014900077956795B795F7959E3F08F0B0CF9395F0
:1014A000880F08F09927EE0F9795879508950E9469
:1014B0006B0A0C94530B0E944C0B58F00E94450B86
:1014C00040F029F45F3F29F00C943C0B51110C942F
:1014D000870B0C94420B0E94640B68F39923B1F3C1
:1014E000552391F3951B550BBB27AA27621773074A
:1014F000840738F09F5F5F4F220F331F441FAA1FDE
:10150000A9F335D00E2E3AF0E0E832D09150504099
:10151000E695001CCAF72BD0FE2F29D0660F771F47
:10152000881FBB1F261737074807AB07B0E809F02D
:10153000BB0B802DBF01FF2793585F4F3AF09E3FB2
:10154000510578F00C943C0B0C94870B5F3FE4F34F
:10155000983ED4F3869577956795B795F7959F5FF5
:10156000C9F7880F911D9695879597F90895E1E041
:10157000660F771F881FBB1F621773078407BA07A0
:1015800020F0621B730B840BBA0BEE1F88F7E095FB
:1015900008950E94D00A6894B1110C94870B0895A5
:1015A0000E946C0B88F09F5798F0B92F9927B7517C
:1015B000B0F0E1F0660F771F881F991F1AF0BA95F7
:1015C000C9F714C0B13091F00E94860BB1E00895C4
:1015D0000C94860B672F782F8827B85F39F0B93FB6
:1015E000CCF3869577956795B395D9F73EF49095AA
:1015F0008095709561957F4F8F4F9F4F0895E89428
:1016000009C097FB3EF490958095709561957F4F4A
:101610008F4F9F4F9923A9F0F92F96E9BB279395F8
:10162000F695879577956795B795F111F8CFFAF408
:10163000BB0F11F460FF1BC06F5F7F4F8F4F9F4F39
:1016400016C0882311F096E911C0772321F09EE897
:10165000872F762F05C0662371F096E8862F70E0FD
:1016600060E02AF09A95660F771F881FDAF7880FD7
:101670009695879597F9089597F99F6780E870E0A8
:1016800060E008959FEF80EC089500240A941616F8
:10169000170618060906089500240A941216130660
:1016A000140605060895092E0394000C11F48823EE
:1016B00052F0BB0F40F4BF2B11F460FF04C06F5F0A
:1016C0007F4F8F4F9F4F089557FD9058440F551FE0
:1016D00059F05F3F71F04795880F97FB991F61F0B4
:1016E0009F3F79F087950895121613061406551F2B
:1016F000F2CF4695F1DF08C0161617061806991F97
:10170000F1CF86957105610508940895E894BB278B
:1017100066277727CB0197F908950E94A00B0C94B8
:10172000530B0E94450B38F00E944C0B20F0952380
:1017300011F00C943C0B0C94420B11240C94870B6D
:101740000E94640B70F3959FC1F3950F50E0551FF5
:10175000629FF001729FBB27F00DB11D639FAA2706
:10176000F00DB11DAA1F649F6627B00DA11D661F55
:10177000829F2227B00DA11D621F739FB00DA11D76
:10178000621F839FA00D611D221F749F3327A00D30
:10179000611D231F849F600D211D822F762F6A2FCC
:1017A00011249F5750409AF0F1F088234AF0EE0F31
:1017B000FF1FBB1F661F771F881F91505040A9F75E
:1017C0009E3F510580F00C943C0B0C94870B5F3FBF
:1017D000E4F3983ED4F3869577956795B795F7959A
:1017E000E7959F5FC1F7FE2B880F911D9695879512
:1017F00097F90895AA1BBB1B51E107C0AA1FBB1F85
:10180000A617B70710F0A61BB70B881F991F5A958C
:10181000A9F780959095BC01CD01089597FB072EFF
:1018200016F4009407D077FD09D00E94FA0B07FC4C
:1018300005D03EF4909581959F4F089570956195E0
:101840007F4F0895052E97FB1EF400940E94390CDB
:1018500057FD07D00E944E0C07FC03D04EF40C94A9
:10186000390C50954095309521953F4F4F4F5F4F24
:10187000089590958095709561957F4F8F4F9F4FFC
:101880000895EE0FFF1F0590F491E02D09940E943A
:10189000700CB7FF0895821B930B0895A1E21A2ED6
:1018A000AA1BBB1BFD010DC0AA1FBB1FEE1FFF1F04
:1018B000A217B307E407F50720F0A21BB30BE40B54
:1018C000F50B661F771F881F991F1A9469F760959B
:1018D0007095809590959B01AC01BD01CF01089555
:1018E000A29FB001B39FC001A39F700D811D112461
:1018F000911DB29F700D811D1124911D0895F999BC
:10190000FECF92BD81BDF89A992780B50895262F04
:10191000F999FECF92BD81BDF89A019700B40216E5
:1019200039F01FBA20BD0FB6F894FA9AF99A0FBE93
:101930000895262FF999FECF1FBA92BD81BD20BD13
:101940000FB6F894FA9AF99A0FBE01960895F89492
:02195000FFCFC7
:101952000101E4012C019001900190011400150095
:10196200E8017800B4008200820012001300EC014A
:1019720000000100000000001C001D00BB0100006F
:101982000100000000001A001B00F00100001E0010
:101992000A000A0010001100F4016400E703FA00D3
:1019A200FA000E000F00D4013200F4014B004B008C
:1019B2000C000D00F8016400E703640064001E00DF
:1019C2001F00FC019CFF6400210021000A000B00A3
:1019D2000002000064002D002D000800090004022E
:1019E2000000E703F401F40106000700060200000C
:1019F200E7030F000F0004000500F2010000E703F7
:101A02008A028A0202000300FFFFFF46414E005491
:101A1200535400435241444C45200046414E5350DA
:101A22004545442000525354002A43004552520077
:101A32002D2D2D004653480046534C00414443008F
:101A4200534C50004156470054474E00544F4600F5
:101A52004954480044004900505F381A1792905E7A
:101A62001016EFEFEFEFEFEFEFEFEFEFEFEFEFEF3C
:101A7200EFEFEFEFEFEFEFEFFFEFEFEFEFEFEFEF64
:101A8200EFEF36EFEFBFEFEFEFEFEFEFEFEFEFEF4D
:101A9200EFEFEFEFEFEFEFEFEF1491F019B0B4903B
:101AA20095DFEFEFF1EF549934EFBD92B1D9D9EF51
:101AB200EFEFEFEFEFEFEFEFEFEFEFEFEFEFEFEF34
:101AC200EFEFEFEFEFEFEFEFEFEFEFEFEFEFEFEF24
:101AD200EFEFEFEFEFEFEFEFEFEFEFEFEFEFEFEF14
:101AE200EFEFEFEFEFEFEFEFEFEFEFEFEFEFEFEF04
:101AF200EFEFEFEFEFEFEFEFEFEFEFEFEFEFEFEFF4
:101B0200EFEFEFEFEFEFEFEFEFEFEFEFEFEFEFEFE3
:101B1200EFEFEFEFEFEFEFEFEFEFEFEFEFEFEFEFD3
:101B2200EFEFEFEFEFEFEFEFEFEFEFEFEFEFEFEFC3
:101B3200EFEFEFEFEFEFEFEFEFEFEFEFEFEFEFEFB3
:101B4200EFEFEFEFEFEFEFEFEFEFEFEFEFEFEFEFA3
:081B5200EFEFEFEFEFEFEFFF03
:00000001FF
